S00C0000627567332E73726563A7
S11300000C94A0020C94C8020C94C8020C94C8026C
S11300100C94C8020C94C8020C94C8020C94C80234
S11300200C94C8020C94C8020C94C8020C94C80224
S11300300C94C8020C94C8020C94C8020C94C80214
S11300400C94C8020C94C8020C94C8020C94C80204
S11300500C94C8020C947B0B0C94111A0C94C802D7
S11300600C94C8020C94C8020C94C8020C94C802E4
S11300700C94C8020C94C8020C94C8020C94C802D4
S11300800C94C8020C94C8020C94C8020C94C802C4
S11300900C94200C0C94C8020C944B0C0C94C802C5
S11300A00C94C8020C94C8020C94C8020C94C802A4
S11300B00C94C8020C94C8020C94C8020C94C80294
S11300C00C94C8020C94C8020C94C8020C94C80284
S11300D00C94C8020C94C8020C94C8020C94C80274
S11300E00C94C80245464765666700202B2D2E30C8
S11300F031323334353637383968003A07006E0008
S113010002470035000244000678033E07006E00F3
S1130110044800350004440004A8034207016F00AA
S113012002880036000280000672034607016F0051
S1130130048A0036000480000475034A07016F0036
S1130140088C0036000880000278034E0702700015
S113015002B300370002B000066F035207027000BA
S113016004B400370004B00004B40356070371005C
S11301700298003800029000069C035A070371009D
S1130180049A003800049000049F035E0703710082
S1130190089C00380008900002A203620704720061
S11301A002A800390002A00006AB0366070472002F
S11301B004AA00390004A00004AE036A0704720014
S11301C008AC00390008A00002B1036E07057300F3
S11301D00228013A0002200106BD037207057300DC
S11301E0042A013A0004200104C0037607057300C1
S11301F0082C013A0008200102C3037A074600458F
S113020000070002101503440001440002450008E1
S1130210000001FB006E0001350001000000000138
S1130220000001000001000025038507840081000F
S113023007FF03103303800001800002810008815E
S113024000101B016F000136000186006F0020368C
S11302500020810040000025039007B200B1000790
S11302600002101503B00001B00002B10008000044
S1130270014B017000013700010000000001000083
S113028001000001000043039B079400910007FF55
S113029003103303900001900002910008910010B4
S11302A06B017100013800019600710020380020B4
S11302B0910040A5032503A607A400A10007FF039E
S11302C0103303A00001A00002A10008A100109BAC
S11302D001720001390001A600720020390020A13A
S11302E00040B7032503B1072401210107FF0310D0
S11302F03303200101200102210108210110CB0157
S11303007300013A000126017300203A0020210104
S113031040BA0325030001FFFF0203FFFFFFFFFFB5
S113032005FFFFFF07060000000100080040000071
S1130330010004000102030405060708090A0B0C66
S1130340FF0E0F080000000100080020004000809C
S11303500000010004010429043F0455046B0481D6
S1130360049704B904CF04E504FB0411052705C868
S11303700310C80320C80340C80380CE0301CE0382
S113038002CE0304CE0308CE0310CE0320D403040C
S1130390D40308D40320D40340D40380DA0308DA56
S11303A00310DA0320DA0380E00320E60308E603FF
S11303B010E60320E60340EC0301EC0302EC03081F
S11303C0EC0310EC032088132500240023002800EC
S11303D0270026002B002A0029002E002D002C00C7
S11303E03400330032000201010100010B010A0153
S11303F00901EE0EE60E204572726F723A25640D05
S11304000A005573657200576562626F744C6962C5
S113041000EE3E9C7A9E8EF62E0C78AE1CAA2A3AEA
S1130420CEE60AB61E387CB86E76DAFC60DAF2667E
S1130430B63EE0FEE6EA15A016BC167516A7168BA6
S11304401600407A10F35A00A0724E18090010A545
S1130450D4E80000E87648170000E40B54020000DA
S1130460CA9A3B000000E1F5050000809698000060
S11304700040420F000000A0860100000010270089
S1130480000000E803000000006400000000000A0F
S113049000000000000100000000002C76D888DC79
S11304A0674F0823DFC1DFAE59E1B1B796E5E3E456
S11304B053C63AE651997696E8E6C28426EB898CCF
S11304C09B62ED407C6FFCEFBC9C9F40F2BAA56F31
S11304D0A5F490055A2AF75C936B6CF9676DC11B00
S11304E0FCE0E40D47FEF520E6B500D0ED902E03C8
S11304F000943577050080841E080000204E0A0011
S11305000000C80C333333330F986E12831141EF5C
S11305108D2114893BE65516CFFEE6DB18D1844BBA
S1130520381BF77C1D901DA4BBE424203284725E2A
S1130530228100C9F124ECA1E53D2700A90CB90CE6
S113054011241FBECFEFD1E2DEBFCDBF15E0A0E086
S1130550B2E0E4E5F5E402C005900D92AE39B107CE
S1130560D9F710E1AEE9B5E001C01D92A033B1079F
S1130570E1F715E0C0E4D5E004C02297FE010E9433
S1130580A422CC33D107C9F70E9449120C949A1EB5
S11305900C940000DF93CF93CDB7DEB7F89481E0DD
S11305A0CF91DF910895DF93CF9300D0CDB7DEB71D
S11305B09A838983EFE5F0E0A981BA818C918083E5
S11305C00F900F90CF91DF910895DF93CF93CDB724
S11305D0DEB728970FB6F894DEBF0FBECDBF9C835D
S11305E08B837E836D8358874F83EFE5F0E08081B2
S11305F08A830E94CA0289830DC0EB81FC818D81AC
S11306009E8195838483EB81FC818F819885978378
S1130610868319828981882381F7CE0102960E94FC
S1130620D30228960FB6F894DEBF0FBECDBFCF918C
S1130630DF910895DF93CF9300D000D000D0CDB7E1
S1130640DEB79A8389837C836B835E834D83E981E0
S1130650FA818B819C81938B828BE981FA818D81D4
S11306609E81958B848BE981FA818089918927E425
S113067033E049815A81B9010E94E50226960FB6FA
S1130680F894DEBF0FBECDBFCF91DF910895DF9305
S1130690CF9300D000D00F92CDB7DEB78B837D838C
S11306A06C838C819D819A838983E981FA81828913
S11306B09389009771F0E981FA81A289B389E9816C
S11306C0FA814489558929813A818B81B901FD01D7
S11306D009950F900F900F900F900F90CF91DF918D
S11306E00895DF93CF9300D0CDB7DEB79A83898383
S11306F0E981FA8182810F900F90CF91DF91089563
S1130700DF93CF9300D0CDB7DEB79A838983E98195
S1130710FA81808191810E9471030F900F90CF9193
S1130720DF910895DF93CF9300D000D0CDB7DEB72B
S11307309C838B838B819C81FC01E554FF4F81E07A
S113074090E0918380831A8219825FC029813A8163
S11307508B819C81FC01E20FF31F108289819A81B5
S11307602B813C81880F991F880F991F820F931F3B
S1130770FC013B9680E090E8ABEBB4E4808391838A
S1130780A283B38389819A812B813C81880F991F2D
S1130790880F991F820F931FFC01F79680E090E861
S11307A0ABEBB4E480839183A283B38389819A8180
S11307B02B813C81880F991F880F991F820F931FEB
S11307C0FC01ED59FF4F80E090E0A0E2B1E48083AA
S11307D09183A283B38389819A812B813C81880F81
S11307E0991F880F991F820F931FFC01E157FF4F38
S11307F080E090E0A8ECB2E480839183A283B38389
S113080089819A8101969A83898389819A818C301E
S113081091050CF49BCF0F900F900F900F90CF91F8
S1130820DF910895DF93CF9300D000D0CDB7DEB72A
S113083069837A838B839C8388ED9FE025E437E08A
S1130840B90140E050E00E941A0380E090E0A0E08B
S1130850B0E0BC01CD010F900F900F900F90CF919D
S1130860DF910895DF93CF9300D00F92CDB7DEB719
S11308709A8389836B83E981FA81808191816B8179
S11308800E9496100F900F900F90CF91DF910895D2
S11308900F931F93DF93CF93CDB7DEB72A970FB68D
S11308A0F894DEBF0FBECDBF6B837C838D839E83A4
S11308B02F83388749875A8780913107909132076F
S11308C0A0913307B09134079C01AD0128513C4FEE
S11308D04F4F5F4F8F819885A985BA8528173907AF
S11308E04A075B0708F055C08F819885A985BA85AA
S11308F08093310790933207A0933307B093340762
S11309001A8243C08A81992787FD9095FC01EE588D
S1130910F94F80818130B1F58A81992787FD9095BF
S1130920880F991F880F991FFC01E358F94F8081A4
S11309309181A281B381BC01CD010E94521CDC01D2
S1130940CB0164EF71E044EC59E021E83FEF0FE79D
S113095010E00E94D11089838A81992787FD9095A0
S1130960880F991FFC01E256FA4F808191816981B9
S11309700E9432048A81992787FD9095FC01EE58E4
S1130980F94F10828A818F5F8A838A818C300CF4BC
S1130990B9CF80E090E0A0E0B0E0BC01CD012A96A0
S11309A00FB6F894DEBF0FBECDBFCF91DF911F917C
S11309B00F910895DF93CF93CDB7DEB70E94F60B66
S11309C084EA9FE090939F0580939E0588EA9FE0C8
S11309D09093A1058093A0058CEA9FE09093A305D2
S11309E08093A20580EB9FE09093A5058093A405D6
S11309F084EB9FE09093A7058093A60588EB9FE086
S1130A009093A9058093A8058EEB9FE09093AB0586
S1130A108093AA0582EC9FE09093AD058093AC058A
S1130A2086EC9FE09093AF058093AE058AEC9FE03F
S1130A309093B1058093B0058EEC9FE09093B3053D
S1130A408093B20582ED9FE09093B5058093B40541
S1130A5085EB95E00E94920382E796E00E94920360
S1130A60CF91DF910895DF93CF9300D00F92CDB74C
S1130A70DEB79A8389836B8389819A816B810E9413
S1130A807C100F900F900F90CF91DF910895DF931A
S1130A90CF9300D00F92CDB7DEB79A8389836B834F
S1130AA089819A816B810E948D0F0F900F900F9016
S1130AB0CF91DF910895DF93CF9300D00F92CDB7FC
S1130AC0DEB79A8389836B8389819A816B810E94C3
S1130AD010100F900F900F90CF91DF910895DF9336
S1130AE0CF9300D000D000D0CDB7DEB79A838983EE
S1130AF04B835C836D837E8389819A812B813C81C6
S1130B004D815E81BA01A90122E00E94A80F2696B8
S1130B100FB6F894DEBF0FBECDBFCF91DF9108951D
S1130B20DF93CF9300D000D0CDB7DEB79A8389830B
S1130B307C836B8389819A812B813C81B9010E94DA
S1130B4007100F900F900F900F90CF91DF910895A1
S1130B50DF93CF9300D000D0CDB7DEB79A838983DB
S1130B607C836B8389819A812B813C81B9010E94AA
S1130B702E100F900F900F900F90CF91DF9108954A
S1130B80DF93CF9300D000D00F92CDB7DEB78B8325
S1130B908B81882F90E0C0979A8389838091B405D4
S1130BA0813019F580912C1090912D10009751F0FF
S1130BB080912C1090912D109C01225030403D8347
S1130BC02C8302C01D821C8220E032E08C819D8136
S1130BD0B9010E94A80529813A81B9010E949005B2
S1130BE023E132E0B9010E94A80589819A810F901E
S1130BF00F900F900F900F90CF91DF910895DF9396
S1130C00CF9300D000D000D0CDB7DEB79A838983CC
S1130C104B835C836D837E8389819A812B813C81A4
S1130C204D815E81BA01A9010E946B1026960FB610
S1130C30F894DEBF0FBECDBFCF91DF910895DF934F
S1130C40CF93CDB7DEB72D970FB6F894DEBF0FBEA6
S1130C50CDBF9B838A834C835D836E837F838C812A
S1130C609D81AE81BF810097A105B10531F18091CD
S1130C702C1090912D10009751F080912C10909190
S1130C802D109C01225030403D872C8702C01D86C8
S1130C901C8625E132E08C859D85B9010E94A8055A
S1130CA02C813D814E815F81BA01A9010E94FF051B
S1130CB023E132E0B9010E94A80580912C109091A3
S1130CC02D10009751F080912C1090912D109C01C3
S1130CD0225030403B872A8702C01B861A862BE1AC
S1130CE032E08A859B85B9010E94A805AC018A81FE
S1130CF09B81FC01E554FF4F20813181CA01B90178
S1130D000E94900526E332E0B9010E94A8051982E9
S1130D10AFC080912C1090912D10009751F08091CC
S1130D202C1090912D109C01225030403987288737
S1130D3002C01986188629E332E088859985B901AD
S1130D400E94A80569810E945B0523E432E0B90191
S1130D500E94A805AC018981282F332727FD3095EF
S1130D608A819B81FC01E20FF31F2081CA01622F5B
S1130D700E94330521E532E0B9010E94A805BC01B7
S1130D808981992787FD90952A813B81880F991F36
S1130D90880F991F820F931FFC013B96208131819C
S1130DA042815381CB01BA01A9010E946F0520E65B
S1130DB032E0B9010E94A805BC018981992787FD09
S1130DC090952A813B81880F991F880F991F820F64
S1130DD0931FFC01F7962081318142815381CB011D
S1130DE0BA01A9010E946F0520E732E0B9010E940F
S1130DF0A805BC018981992787FD90952A813B81AB
S1130E00880F991F880F991F820F931FFC01ED59BA
S1130E10FF4F2081318142815381CB01BA01A90165
S1130E200E946F0529E732E0B9010E94A805BC01C0
S1130E308981992787FD90952A813B81880F991F85
S1130E40880F991F820F931FFC01E157FF4F2081E8
S1130E50318142815381CB01BA01A9010E946F05FE
S1130E6023E132E0B9010E94A80589818F5F89835B
S1130E7089818C300CF44DCF2D960FB6F894DEBFDB
S1130E800FBECDBFCF91DF910895CF92DF92EF9245
S1130E90FF920F931F93DF93CF93CDB7DEB7A6973F
S1130EA00FB6F894DEBF0FBECDBF8C837E836D83F7
S1130EB058874F8380912C1090912D10009751F0FA
S1130EC080912C1090912D109C01225030403EA313
S1130ED02DA302C01EA21DA220E832E08DA19EA176
S1130EE0B9010E94A8056C810E94330523E132E018
S1130EF0B9010E94A8058C81282F30E03CA32BA3C4
S1130F008BA19CA18A3391052CF52BA13CA1203304
S1130F1031050CF037C18BA19CA18D30910509F4EA
S1130F2006C32BA13CA12E3031053CF48BA19CA11E
S1130F308A30910509F4FBC25CC32BA13CA1203289
S1130F40310509F4F0C28BA19CA18332910509F407
S1130F5063C04FC32BA13CA12035310509F480C0E7
S1130F608BA19CA18135910534F42BA13CA12F3395
S1130F70310571F03EC38BA19CA18335910509F421
S1130F80A5C02BA13CA12435310509F4D5C031C33A
S1130F908091B4058823E9F581E08093B4051A8231
S1130FA034C080912C1090912D10009751F08091B5
S1130FB02C1090912D109C01225030403AA329A36B
S1130FC002C01AA219A220E932E089A19AA1B901AA
S1130FD00E94A8058C018A81992787FD9095880F26
S1130FE0991FFC01E256FA4F808191810E9480038F
S1130FF0282FC801622F0E945B0523E132E0B9016A
S11310000E94A8058A818F5F8A838A818C304CF282
S1131010F0C21092B405EDC2109230078C81809317
S11310202F078091B405813009F0E3C280912C1020
S113103090912D10009751F080912C1090912D10CB
S11310409C012250304038A32F8F02C018A21F8E5B
S11310502FE932E08F8D98A1B9010E94A805C9C279
S113106080913007992787FD9095880F991F880FE5
S1131070991FFC01E054FA4F80E090E0A0E0B0E05A
S113108080839183A283B3838C8180932F07809183
S1131090B405813009F0ADC280912C1090912D10CF
S11310A0009751F080912C1090912D109C012250AA
S11310B030403E8F2D8F02C01E8E1D8E2FEB32E0EE
S11310C08D8D9E8DB9010E94A80593C28091300731
S11310D0992787FD9095880F991F880F991FFC0108
S11310E0E85EF94F80E090E0A0E0B0E08083918377
S11310F0A283B3838C8180932F078091B4058130C0
S113110009F077C280912C1090912D10009751F026
S113111080912C1090912D109C01225030403C8FD6
S11311202B8F02C01C8E1B8E2BED32E08B8D9C8D81
S1131130B9010E94A8055DC2109271061092700652
S11311408C8180932F078091B405813009F051C2BE
S113115080912C1090912D10009751F080912C10BB
S113116090912D109C01225030403A8F298F02C05B
S11311701A8E198E24EF32E0898D9A8DB9010E945E
S1131180A80537C28091B405813019F580912C10DF
S113119090912D10009751F080912C1090912D106A
S11311A09C0122503040388F2F8B02C0188E1F8A2A
S11311B02CE033E08F89988DB9010E94A805209115
S11311C02F07622F0E94470523E132E0B9010E94F4
S11311D0A80580912F07282F30E03E8B2D8B8D8919
S11311E09E898335910509F4DEC02D893E89243515
S11311F0310564F48D899E898332910571F02D89BE
S11312003E892035310509F447C0F3C18D899E8993
S11312108435910509F444C1ECC1809130079927C4
S113122087FD90959C01220F331FC901880F991FD8
S1131230880F991F820F931F182F8C810E94C0055D
S1131240810F809330078091B405813009F0D1C1BA
S113125080912C1090912D10009751F080912C10BA
S113126090912D109C01225030403C8B2B8B02C05E
S11312701C8A1B8A24E333E08B899C89B9010E9470
S1131280A80520913007622F0E945B0523E132E01C
S1131290B9010E94A805ADC180913007C82EDD2494
S11312A0C7FCD09480913007992787FD9095880FCB
S11312B0991F880F991FFC01E054FA4F8081918196
S11312C0A281B381BC01CD0120E030E040E251E4D1
S11312D00E94111DDC01CB017C018D018C810E94D7
S11312E0C005AA2797FDA095BA2FBC01CD010E9485
S11312F0851C9B01AC01C801B7010E94EE1BDC01F7
S1131300CB019C01AD01C601880F991F880F991F5D
S1131310FC01E054FA4F208331834283538380914C
S11313203007992787FD9095FC01EB54FA4F81E033
S113133080838091B405813009F05BC180912C10C9
S113134090912D10009751F080912C1090912D10B8
S11313509C01225030403A8B298B02C01A8A198A88
S11313602AE433E089899A89B9010E94A805BC015D
S113137080913007992787FD9095880F991F880FD2
S1131380991FFC01E054FA4F20813181428153813D
S1131390CB01BA01A9010E946F0523E132E0B90132
S11313A00E94A80526C180913007C82EDD24C7FC01
S11313B0D09480913007992787FD9095880F991FC5
S11313C0880F991FFC01E85EF94F80819181A28109
S11313D0B381BC01CD0120E030E040E251E40E9441
S11313E0111DDC01CB017C018D018C810E94C005A3
S11313F0AA2797FDA095BA2FBC01CD010E94851C98
S11314009B01AC01C801B7010E94EE1BDC01CB01BA
S11314109C01AD01C601880F991F880F991FFC011B
S1131420E85EF94F20833183428353838091B4056E
S1131430813009F0DEC080912C1090912D1000971E
S113144051F080912C1090912D109C01225030402D
S1131450388B2F8702C0188A1F8620E733E08F85D8
S11314609889B9010E94A805BC0180913007992789
S113147087FD9095880F991F880F991FFC01E85EDE
S1131480F94F2081318142815381CB01BA01A901F5
S11314900E946F0523E132E0B9010E94A805A9C0AA
S11314A080917006909171069C01220F331FC9012F
S11314B0880F991F880F991F8901080F191F8C81A4
S11314C00E94C005800F911F90937106809370064F
S11314D08091B405813009F08CC080912C109091DA
S11314E02D10009751F080912C1090912D109C019B
S11314F0225030403E872D8702C01E861D862CE870
S113150033E08D859E85B9010E94A805209170065F
S113151030917106B9010E94900523E132E0B901CE
S11315200E94A80566C080E280932F0762C080E213
S113153080932F07EFE5F0E080818B830E94CA023D
S113154089830AC082E796E025EB35E0B9014DEBCB
S113155050E00E94A81E19828981882399F7CE0140
S113156003960E94D30285EB95E00E94920380913A
S11315702C1090912D10009751F080912C10909187
S11315802D109C01225030403C872B8702C01C86C2
S11315901B8622EA33E08B859C85B9010E94A8054D
S11315A085EB95E040E050E060E070E00E941F06AB
S11315B080912C1090912D10009751F080912C1057
S11315C090912D109C01225030403A87298702C007
S11315D01A86198628EB33E089859A85B9010E9419
S11315E0A80582E796E040E050E060E070E00E94E9
S11315F01F06A6960FB6F894DEBF0FBECDBFCF91DF
S1131600DF911F910F91FF90EF90DF90CF9008959D
S1131610FC016FB7F89486B52091350730913607F1
S11316204091370750913807208331834283538395
S113163026B530E03583248390E02817390710F06D
S1131640A99B0FC080819181A281B3818058914C64
S1131650AF4FBF4F80839183A283B38386B58483C6
S113166015826FBF0895EF92FF920F931F93FC01B1
S1131670E080F180028113816481758180E090E0D3
S113168020E83EE340E050E00E94FB212AEF30E0F6
S113169040E050E00E942E222E0D3F1D401F511F9E
S11316A0B901CA011F910F91FF90EF9008950F9314
S11316B01F93DF93CF9300D000D000D0CDB7DEB717
S11316C08E010F5F1F4FC8010E94080BC8010E94C2
S11316D0330B26960FB6F894DEBF0FBECDBFCF9165
S11316E0DF911F910F910895A99AEEE6F0E08081B1
S11316F08260808308951F920F920FB60F92112477
S11317002F938F939F93AF93BF93809135079091BD
S11317103607A0913707B09138078058914CAF4FE6
S1131720BF4F8093350790933607A0933707B09344
S1131730380720911E102223B9F1399B35C08091BE
S11317403907882319F0815080933907809139072C
S1131750882351F580911F10882359F4822F9927EB
S113176087FD909597FF03C0909581959F4F809337
S11317701F1027FD02C09FE101C09FE020912010AF
S1131780222341F080911F10815080931F108823E1
S113179009F49DE710922010222319F481E080932C
S11317A0201090933907319ABF91AF919F918F91F7
S11317B02F910F900FBE0F901F901895682F82E104
S11317C094E00E94D71290E008958EE793E09093FE
S11317D0241080932310809125108C7F80932510F2
S11317E083E290E16FEF0E94271208958DEA94E05E
S11317F00E94700E8DE395E00E94700E08950F9381
S11318001F938091FF03909100046FEF0E94D91100
S113181006E71CE0C8010E945C11C8010E94B412D2
S11318208DEC93E040E855E260E070E00E94A4157E
S113183081E094E060E20E9434141F910F910895B6
S11318401F920F920FB60F9211242F933F934F9331
S11318505F936F937F938F939F93AF93BF93EF9314
S1131860FF93E091F903F091FA0360818DEC93E02A
S11318700E94D816FF91EF91BF91AF919F918F91E4
S11318807F916F915F914F913F912F910F900FBE78
S11318900F901F9018951F920F920FB60F9211245C
S11318A02F933F934F935F936F937F938F939F9364
S11318B0AF93BF93EF93FF938DEC93E00E94911746
S11318C0FF91EF91BF91AF919F918F917F916F9114
S11318D05F914F913F912F910F900FBE0F901F90EA
S11318E018958DEC93E00E94F2160895682F8DEC04
S11318F093E00E94871790E00895282F61157105E1
S113190019F4A0E0B0E002C0DB011297ED91FC9164
S113191011970190F081E02DCD01622F0995089572
S1131920009719F4A0E0B0E002C0DC011297ED9139
S1131930FC9111970280F381E02DCD010995089562
S1131940862F90E008958FEF9FEF08958FEF9FEF1C
S113195008958AED9FE090932D1080932C1090931E
S11319602B1080932A1090932F1080932E1008959B
S1131970FFCF83E290E190938F0F80938E0F85E6E3
S113198095E090938D0F80938C0F8FEF93E090935D
S1131990910F8093900F6DE77CE070939D0F60939F
S11319A09C0F40E95CE050939F0F40939E0FA3E08F
S11319B0A093970F1092A10F1092A00F81E795E0CA
S11319C09093930F8093920F82E194E09093A30FEE
S11319D08093A20F89E294E09093A50F8093A40FC3
S11319E09093A70F8093A60F8FE394E09093A90F91
S11319F08093A80F9093AB0F8093AA0F85E594E092
S1131A009093AD0F8093AC0F9093AF0F8093AE0F74
S1131A108BE694E09093B10F8093B00F9093B30F43
S1131A208093B20F81E894E09093B50F8093B40F44
S1131A309093B70F8093B60F87E994E09093B90F12
S1131A408093B80F9093BB0F8093BA0F8DEA94E004
S1131A509093BD0F8093BC0F89EB94E09093BF0FDC
S1131A608093BE0F9093C10F8093C00F8FEC94E0CE
S1131A709093C30F8093C20F9093C50F8093C40FAC
S1131A8085EE94E09093C70F8093C60F9093C90F8F
S1131A908093C80F8BEF94E09093CB0F8093CA0F81
S1131AA09093CD0F8093CC0F81E195E09093CF0F6D
S1131AB08093CE0F9093D10F8093D00F87E295E05F
S1131AC09093D30F8093D20F9093D50F8093D40F1C
S1131AD08DE395E09093D70F8093D60F7093E30F27
S1131AE06093E20F5093E50F4093E40FA093DD0F52
S1131AF01092E70F1092E60F2DEC33E03093E90FCC
S1131B002093E80FE8EDFFE0F093E303E093E203B2
S1131B1081E895E0918380833093EF0F2093EE0F5B
S1131B201092F00F7093FC0F6093FB0F5093FE0F15
S1131B304093FD0FA093F60F109200101092FF0F28
S1131B4081E995E09093F20F8093F10F08951F932C
S1131B50162F80912310909124100E94C411882381
S1131B6029F083E290E1612F0E9427121F910895CA
S1131B70FC01828193810E9427120895FC018089CF
S1131B8091890E94D71290E00895FC01808D8823EA
S1131B9029F0868997890E94F81708958089918988
S1131BA00E94F2160895FC01808991890E94F21620
S1131BB00895FC01808991890E94871790E0089517
S1131BC02BEF31E0F901A591B49184E01A968C933E
S1131BD01A9784B5826084BD8AEF87BD80E094E063
S1131BE08D939C9385B5856085BD215D3F4FF9013B
S1131BF0A591B4919EE01A969C931A97E0E8F0E0C0
S1131C00808182608083E1E8F0E080818860808365
S1131C1080818061808340E45CE950938700409335
S1131C20860028E030E02D933C938081826080839D
S1131C30E8E8F2E0A591B4911A969C931A97E0E92A
S1131C40F0E0808182608083E1E9F0E08081886057
S1131C5080838081806180835093970040939600B5
S1131C602D933C93808182608083E7EBF2E0A59121
S1131C70B4911A969C931A97E0EAF0E0808182600E
S1131C808083E1EAF0E080818860808380818061E4
S1131C9080835093A7004093A6002D933C938081AA
S1131CA082608083E6EEF2E0A591B4911A969C934B
S1131CB01A97E0E2F1E0808182608083E1E2F1E062
S1131CC08081886080838081806180835093270134
S1131CD0409326012D933C938081826080830895F4
S1131CE08F929F92AF92BF92CF92DF92EF92FF9228
S1131CF00F931F93CF93DF936C01DC0112968C91A9
S1131D00C82FD0E021977E01EE0CFF1C92EF892EA4
S1131D1093E0992E8FE2A82E47C0D601ED91FC9155
S1131D20EE0DFF1D05911491F801D582C4828681C0
S1131D3097810E94F514FC01D80155969C938E93CB
S1131D4054973296B49011969C928E9216968D91D9
S1131D509C91179760E00E940012BA9CC001112464
S1131D60855E9D4FFC01A591B4918D919C91D80104
S1131D7053969C938E93529718966D917C911997D4
S1131D801A964D915C911B97C8010E940C0FC801D3
S1131D9060E00E949610C8016FEF0E94B610219770
S1131DA0EEEFFFEFEE0EFF1EFFEFCF3FDF0709F070
S1131DB0B4CFDF91CF911F910F91FF90EF90DF90FF
S1131DC0CF90BF90AF909F908F900895FC0184892D
S1131DD09589611162E00E9441150895EF92FF9286
S1131DE00F931F93FC01E488F588248535850685C7
S1131DF01785862F992787FD909561E87FEF4FE738
S1131E0050E00E941811BC01C7010E9463151F9184
S1131E100F91FF90EF9008959F92AF92BF92CF924F
S1131E20DF92EF92FF920F931F93CF93DF93EC0116
S1131E307B018A01798768875B874A878C819D81CA
S1131E40892B09F45EC09FB6F8948A899B8968EE51
S1131E5073E00E941A225B01CC24DD24B701601BCD
S1131E60710B80E090E0A60195010E94FB2124E122
S1131E7030E040E050E00E942E22C901DA019C01CA
S1131E80AD01DA01C901807090700097A105B10518
S1131E9039F086EE0E9461112FEF3FEF40E050E0F1
S1131EA03D872C870E0D1F1DB80180E090E0A60130
S1131EB095010E94FB2124E130E040E050E00E94C3
S1131EC02E22C901DA019C01AD01DA01C901807039
S1131ED090700097A105B10539F086EE0E9461115A
S1131EE02FEF3FEF40E050E03F872E878B8180FF4C
S1131EF007C06A8161506A836F5FCE010E949610A9
S1131F009FBEDF91CF911F910F91FF90EF90DF90D3
S1131F10CF90BF90AF909F9008951F93CF93DF937E
S1131F20EC01162F6A3039F4E881F9810190F081CF
S1131F30E02D6DE00995E881F9810190F081E02DB3
S1131F40CE01612F0995CE01DF91CF911F910895A4
S1131F50EF92FF920F931F93DF93CF93CDB7DEB72A
S1131F60A0970FB6F894DEBF0FBECDBFF82EE92EB2
S1131F70CB01BA014FEF8E010F5F1F4F0E94741DFA
S1131F80BC018F2D9E2D0E942E108F2D9E2DA0966C
S1131F900FB6F894DEBF0FBECDBFCF91DF911F9176
S1131FA00F91FF90EF9008950F931F93DF93CF93BA
S1131FB0CDB7DEB7A1970FB6F894DEBF0FBECDBF85
S1131FC08C01223008F422E0CB01BA01AE014F5F4C
S1131FD05F4F30E00E94B11EBC01C8010E942E1068
S1131FE0A1960FB6F894DEBF0FBECDBFCF91DF919F
S1131FF01F910F9108952AE00E94D40F0895AB0118
S1132000662757FD6095762F0E94FB0F0895AB015C
S1132010662757FD6095762F2AE00E94D40F089515
S1132020462F552747FD5095652F752F2AE00E94AE
S1132030D40F0895EF92FF920F931F93E62E242F4F
S1132040FF24E7FCF0940F2D1F2DB801A7010E9477
S1132050D40F1F910F91FF90EF9008950F931F934A
S1132060CF93DF93182F092FEB0104C0812F902FFA
S11320700E948D0F69916623C9F7812F902FDF91FC
S1132080CF911F910F9108950F931F93DF93CF93D7
S1132090CDB7DEB7A1970FB6F894DEBF0FBECDBFA4
S11320A08C01223008F422E0CB01BA01AE014F5F6B
S11320B05F4F30E00E94E51EBC01C8010E942E1053
S11320C0A1960FB6F894DEBF0FBECDBFCF91DF91BE
S11320D01F910F9108952AE00E9444100895AB01C6
S11320E060E070E00E946B100895AB0160E070E066
S11320F02AE00E9444100895462F50E060E070E00A
S11321002AE00E9444100895EF92FF920F931F93C8
S1132110242FE62EFF2400E010E0B801A7010E945E
S113212044101F910F91FF90EF9008951F93CF9348
S1132130DF93EC01162F61380CF411E8E881F98182
S1132140309779F0259134912115310551F08B8127
S113215081FD02C0612F02C0612F6195CE01F9019A
S113216009951A83DF91CF911F910895DC01962F71
S1132170917013968C9113978E7F892B13968C9361
S113218013978D919C911197009751F0FC01329611
S1132190259134912115310519F0CD01F9010995E5
S11321A008954F925F926F927F928F929F92AF9217
S11321B0BF92CF92DF92EF92FF920F931F932B0166
S11321C03A0159017801E21AF30A0027F7FC009555
S11321D0102F9C01261B370B442737FD4095542FA5
S11321E0C801B7010E94FB2164187508882477FC94
S11321F08094982CA40193010E945022C901DA0111
S1132200CC24B7FCC094DC2CA80EB91ECA1EDB1E5D
S1132210C5011F910F91FF90EF90DF90CF90BF9079
S1132220AF909F908F907F906F905F904F900895A4
S11322304F925F926F927F928F929F92AF92BF92D2
S1132240CF92DF92EF92FF920F931F932B015A01CB
S113225039017801E21AF30A00E010E09C01261B20
S1132260370B442737FD4095542FC801B7010E940E
S1132270FB21A418B508CC24B7FCC094DC2CA6011F
S113228095010E94502288249924260D371D481D4B
S1132290591DC9011F910F91FF90EF90DF90CF90CE
S11322A0BF90AF909F908F907F906F905F904F9072
S11322B0089580911E100895909322108093211008
S11322C008951F93182F80911E10882309F05AC077
S11322D010931E108091231090912410009749F0C0
S11322E00E94C411882329F083E290E160E00E94F7
S11322F0271280912E1090912F10009709F442C05C
S113230017FF12C000D000D0ADB7BEB712969C9391
S11323108E93119787E094E014969C938E93139771
S11323200E940A1F11950CC000D000D0EDB7FEB773
S11323309283818382E094E0948383830E940A1FC2
S113234000D0EDB7FEB7319680912E1090912F10EA
S1132350ADB7BEB712969C938E93119786EF93E018
S113236093838283812F992787FD90959583848316
S11323700E940A1FEDB7FEB736960FB6F894FEBF5B
S11323800FBEEDBF1F9108959C01009781F0FC01E1
S1132390859194910296FC01A591B4912E5F3F4FD3
S11323A0F90194918C91892311F08FEF089580E0C5
S11323B00895CF93DF939C010097F9F0FC014591B8
S11323C05491CA010296FC01A591B491FA01C591F8
S11323D0D4912E5F3F4FF90194913FB7F8948C91BB
S11323E0292F209582238C93662319F08881892BC9
S11323F002C08881822388833FBFDF91CF910895F3
S1132400CF93DF939C010097F9F0FC01459154911F
S1132410CA010296FC01C591D491FA01A591B49127
S11324202E5F3F4FF90124913FB7F894662319F0CA
S11324308C91822B04C08C91922F909589238C933C
S11324408881822B88833FBFDF91CF9108951F93AA
S1132450CF93DF93EC01162F888199810097A9F01F
S11324603A8130FD05C020E0662309F421E0122FF3
S113247031FD06C0612F0E9400128A8182608A8326
S113248088819981612F0E941919DF91CF911F9141
S113249008950E94E50BF8940E94E00D0E94740BCD
S11324A078940E94FF0B0E94DA040E94570B6093F9
S11324B005107093061080930710909308100E94E3
S11324C012046093091070930A1080930B10909378
S11324D00C1078940E94C5188091091090910A10EC
S11324E0A0910B10B0910C100097A105B10519F43F
S11324F016C00E94C5186091051070910610809155
S11325000710909108102091091030910A10409101
S11325100B1050910C100E947A18882351F30E94DA
S1132520570B9B01AC0160930510709306108093C8
S1132530071090930810609101107091021080911F
S11325400310909104106F5F7F4F8F4F9F4F6093E4
S113255001107093021080930310909304100E9452
S11325604804AFCF90E008954FB7F89420919505B3
S11325703091960590939605809395054FBFC901B8
S113258008951F93182F8A3031F4E0919505F09146
S113259096058DE00995E0919505F0919605812FBA
S11325A009951F9108958AE00E94C1120895CF925F
S11325B0DF92EF92FF920F931F93CF93DF93EC017F
S11325C0D62E8C819D81892BA9F58A859B850196C0
S11325D00E94951D9D838C83009761F120E030E07B
S11325E007C0EC81FD81E20FF31F10822F5F3F4F84
S11325F08A859B8582179307A0F7198618861F8200
S11326001E828C898E7F8C8B00E010E00EC0C80186
S1132610880F991FE881F981E80FF91F859194913A
S113262060E20E9434140F5F1F4F8A819B81081758
S1132630190768F3EC81FD81309709F43EC08AE004
S1132640D81619F588859985E80FF91F108219861F
S11326501886CFB6F8948C8980FD15C08C8981606A
S11326608C8B8C898D7F8C8B1F821E820E94570BD2
S11326709B01AC01EC84FD840E851F8587E693E104
S1132680BE010E94351ACFBE18C08DE0D816A9F03D
S1132690288539858A859B852817390770F4E20FC8
S11326A0F31F2FB7F894D0821182888599850196FB
S11326B0998788871F821E822FBF8D2DDF91CF912E
S11326C01F910F91FF90EF90DF90CF9008952F927C
S11326D03F924F925F926F927F928F929F92AF92AE
S11326E0BF92CF92DF92EF92FF920F931F93CF93FB
S11326F0DF93382E292E2A013B01C82FD92F0C81B4
S11327001D818E819F81080F191FF80180808C899B
S113271086958170882029F4A888B988CA88DB88BE
S113272004C0AC84BD84CE84DF848823D1F48820A3
S1132730C1F0F80132918F010F5F1F4F4A815B8115
S1132740F80180E090E007C02081222351F0231794
S113275041F43196019684179507B0F399249A941D
S113276001C099248C8986958170292D332727FDF2
S1132770309590E028173907C1F0A601950162E071
S113278056954795379527956A95D1F7992D927067
S11327908C898D7F892B8C8B992019F059016A01C2
S11327A004C0A21AB30AC40AD50AEE24FF2418C02E
S11327B0C701880F991FE881F981E80FF91F8591F6
S11327C09491992039F4F8016081662319F00F5F20
S11327D01F4F01C060E20E9434140894E11CF11CF4
S11327E08A819B81E816F90618F38820B1F41F82C8
S11327F01E8288899989AA89BB890097A105B10598
S113280029F0EC81FD818081882319F48C898E7FE5
S113281002C08C898D7F8C8B07C0992029F48E810E
S11328209F8101969F838E838C8980FF0AC087E6EF
S113283093E1632D722DA3019201860175010E941B
S1132840351ADF91CF911F910F91FF90EF90DF9098
S1132850CF90BF90AF909F908F907F906F905F903C
S11328604F903F902F900895EF92FF920F931F93F4
S1132870CF93DF938C01E62EFC01808981FD12C089
S1132880C0E0D0E0F801EC0FFD1F8081918160E091
S11328900E9400122296C031D105A1F7F801808967
S11328A08260808B8E2D0E94BA14F82E80FF07C0A0
S11328B0F80186859785892B11F480E1F82EF801BB
S11328C0808980FFF094C0E0D0E0F801EC0FFD1F98
S11328D080819181F7FE03C00E94F51802C00E9416
S11328E0D0182296C031D10511F0FF0CEECF8E2DF9
S11328F0DF91CF911F910F91FF90EF900895EF9288
S1132900FF920F931F93CF93DF938C01E62EF42E47
S1132910FC01808981FD12C0C0E0D0E0F801EC0F19
S1132920FD1F8081918160E00E9400122296C031D7
S1132930D105A1F7F80180898260808BF801808934
S113294080FD06C0FF2019F4FF24FA9401C0FF247F
S1132950EE2DF0E0EE0FFF1FE00FF11F808191815B
S11329606F2D0E941919DF91CF911F910F91FF9044
S1132970EF900895E82F81548A3128F4F0E0E05371
S1132980FC4F849108958E2F81568A3128F4F0E00B
S1132990E055FC4F849108958E2F80538A3028F49B
S11329A0F0E0E550FC4F84910895EA3028F4F0E01B
S11329B0E55DFB4F84910895ED3211F482E00895B2
S11329C0EB3579F0EB3769F0E83259F0ED3559F031
S11329D0ED3749F0E93239F080E0EE3229F481E054
S11329E008958CE9089580EF0895BF92CF92DF9205
S11329F0EF92FF920F931F93CF93DF936C01B090EC
S1132A00C4032BEF31E090E0C0E0D0E02DC0285F9C
S1132A103F4FF901E49028503040F9017896295F3E
S1132A203F4F80E0A0E0B0E005911491F901F490EB
S1132A302750304014C0B8016A0F7B1FFB013E963B
S1132A40459154914115510541F04C155D0529F40A
S1132A50FF2011F0EB010AC0EB018F5F50968E1539
S1132A6050F39F5F215D3F4F9B1588F2CE01DF91AC
S1132A70CF911F910F91FF90EF90DF90CF90BF9077
S1132A8008959C010B96FC01A591B491235F3F4FDF
S1132A90F901249170E0022E02C0660F771F0A9498
S1132AA0E2F781E090E002C0880F991F2A95E2F7CF
S1132AB0282F220F282B9C91822F862320952923AF
S1132AC0822B8C930895CF93DF939C012E5F3F4F0D
S1132AD0F9018491225030409FE2899FA001112482
S1132AE045505E4F485F5F4FFA0184914850504013
S1132AF08823C1F0C9010696FC01C591D491FA015D
S1132B003796E491EE2319F0798368830EC06F3F02
S1132B10710531F028F08EEF0E9461116FEF70E0C3
S1132B20688303C08DEF0E946111DF91CF910895F6
S1132B30DC0119968D919C911A97FC012591349191
S1132B40CD01F90109950895DF92EF92FF920F9359
S1132B501F93CF93DF93EC017A018B01DFB6F894D6
S1132B602D853E858F8598892817390711F080E0D7
S1132B7001C08FEF8F8B882381F02D853E858F8553
S1132B8098892817390721F0C90160E00E94D911FA
S1132B908F8598896FEF0E94D91188858160888715
S1132BA088858B7F888788858D7F888789859A85A6
S1132BB00496FC0125913491CE01B801A701F901D5
S1132BC00995DFBEDF91CF911F910F91FF90EF9098
S1132BD0DF900895BF92CF92DF92EF92FF920F930E
S1132BE01F93CF93DF937A018B01EC01BFB6F89466
S1132BF04F3F8FEF58078FEF68078FEF780721F467
S1132C00A1E0CA2ED12C24C0CB01BA01F3E0660F97
S1132C10771F881F991FFA95D1F72091C50330912A
S1132C20C6034091C7035091C803620F731F841FEA
S1132C30951FA8019701E4E0220F331F441F551F7D
S1132C40EA95D1F70E942E2269010894C108D1089F
S1132C5098A99923C9F1ECA1FDA1808190958923BC
S1132C6080838FEFE8168FEFF8068FEF08078FEF5A
S1132C70180719F421E030E01DC032E0EE0CFF1C0F
S1132C80001F111F3A95D1F76091C5037091C603D7
S1132C908091C7039091C8036E0D7F1D801F911F03
S1132CA0EE0CFF1C001F111FA80197010E942E2289
S1132CB0215030402C153D0538F0ECA1FDA1808158
S1132CC098A9892B80836901E8A5F9A5C082EAA5A2
S1132CD0FBA5D082BFBEDF91CF911F910F91FF90D2
S1132CE0EF90DF90CF90BF900895DC019696ED9120
S1132CF0FC919797808187728083D0969C91D0971E
S1132D00992341F09496ED91FC919597808190954B
S1132D10892380830895DC0157968C9157978823E3
S1132D2071F09696ED91FC9197978081877B8083D3
S1132D309696ED91FC9197978081806980830895A0
S1132D40DC019C96ED91FC919D9760830895DC01D4
S1132D5057968C915797882371F09696ED91FC9134
S1132D60979780818F7680839696ED91FC919797C3
S1132D708081886480830895CF93DF93EC010E945F
S1132D8098158F89882311F020E90CC08D859E85C4
S1132D90892B11F020E901C020E08F859889892BC7
S1132DA009F02864EEA1FFA12083DF91CF9108955B
S1132DB0DC01262F14968D919C911597892B59F03F
S1132DC01496ED91FC91159716966D917C91179739
S1132DD0822F099508959096ED91FC919197CD01DC
S1132DE009950895FC0122A133A1F90109950895DB
S1132DF0DF93CF930F92CDB7DEB7FC018081918131
S1132E00BE016F5F7F4F0E940C18882319F42FEFC7
S1132E103FEF03C08981282F30E0C9010F90CF9183
S1132E20DF910895CF93DF93EC01888199810E940B
S1132E305418882331F488858460888785EF0E943C
S1132E406111DF91CF910895DC0119968D919C91C8
S1132E501A970296FC0125913491CD01F901099547
S1132E600895CF93DF93EC0188858E7F8887E88D62
S1132E70F98D309721F08A8D9B8D6FEF0995E98547
S1132E80FA853896259134912115310519F0CE0132
S1132E90F9010995DF91CF910895CF93DF93EC0168
S1132EA0888581608887E985FA853A9625913491E9
S1132EB02115310519F0CE01F9010995E88DF98D37
S1132EC0309721F08A8D9B8D60E00995DF91CF9139
S1132ED00895EF92FF920F931F93CF93DF938C018A
S1132EE07B01EA010BC0D7016D917D01D8015C968D
S1132EF0ED91FC915D97C80109952197209799F769
S1132F00DF91CF911F910F91FF90EF9008951F9340
S1132F10FC01162F248D358DF9010995812F1F9100
S1132F200895FC01268D378DF90109950895FF92C6
S1132F300F931F93DF93CF930F92CDB7DEB78C011E
S1132F40FFB6F894FC0182819381BE016F5F7F4FCD
S1132F500E940C18882329F0C80169810E94241753
S1132F6007C0C8010E944D17F80180858D7F8087B6
S1132F70FFBE0F90CF91DF911F910F91FF900895A5
S1132F800F931F93CF93DF93162FEC0102C00E947F
S1132F90C5188A819B810E944C188823C1F70FB7FA
S1132FA0F894888581FD0BC0888582608887CE016E
S1132FB00E943117CE01612F0E94241705C08A8117
S1132FC09B81612F0E9454180FBFDF91CF911F91F5
S1132FD00F910895DC019696ED91FC9197976623E5
S1132FE019F080818F7702C0808180688083089582
S1132FF0DC019496ED91FC919597808187FD03C047
S11330002FEF3FEF07C09C96ED91FC919D97808137
S1133010282F30E0C9010895CF93DF93DC01EB0141
S11330204FB7F894009799F112968D919C9113974C
S1133030892B69F114968D919C911597892B39F1FF
S113304016962D913C911797ED91FC911197E20FF3
S1133050F31F808188832F5F3F4F17963C932E93F5
S1133060169712968D919C9113972817390721F47E
S113307017961C921E92169714968D919C911597F3
S1133080019715969C938E9314978FEF01C080E05F
S11330904FBFDF91CF9108950E942119892B11F020
S11330A080E008958FEF08951F93CF93DF93EC0191
S11330B0462F1FB7F8942C813D816A817B812617A6
S11330C0370710F080E011C08E819F81820F931F1B
S11330D00E941A22E881F981E80FF91F40838C814C
S11330E09D8101969D838C838FEF1FBFDF91CF91CC
S11330F01F9108950F931F9300E010E00E9483181E
S11331001F910F9108958F929F92AF92BF92CF9289
S1133110DF92EF92FF920F931F93CF93DF936B0194
S11331207C0149015A01E8010E94570B6C197D0981
S11331308E099F09681579058A059B0568F00115B4
S1133140110541F0681979098A099B096883798313
S11331508A839B838FEF0CC00115110541F0861AF9
S1133160970AA80AB90A88829982AA82BB8280E057
S1133170DF91CF911F910F91FF90EF90DF90CF904F
S1133180BF90AF909F908F9008958FB77894000070
S11331900000000000000000000000008FBF089540
S11331A0CF93DF939C010097E9F0FC018591949102
S11331B0FC01A591B4910296FC01C591D4912E5FB6
S11331C03F4FF90124918881822349F09FB7F894F5
S11331D08C91209582238C939FBF000003C087EFBE
S11331E00E946111DF91CF910895CF93DF939C01E9
S11331F00097E1F0FC0185919491FC01A591B491B3
S11332000296FC01C591D4912E5F3F4FF9012491A0
S11332108881822341F09FB7F8948C91822B8C9300
S11332209FBF000003C087EF0E946111DF91CF911F
S11332300895662319F00E94F51808950E94D01885
S11332400895FC014FB7F894009719F420E030E09A
S113325006C02281338184819581281B390B4FBF9D
S1133260C90108952F923F924F925F926F927F927D
S11332708F929F92AF92BF92CF92DF92EF92FF9282
S11332800F931F93DF93CF93CDB7DEB727970FB676
S1133290F894DEBF0FBECDBF80916E008B7F80930C
S11332A06E002FB72F8378948FEF80931A101092AB
S11332B01B1080919705482F50E0415050405E8389
S11332C04D838DE090E0489F5001499FB00C589F7A
S11332D0B00C1124ADE0B0E1AA0EBB1E6624772425
S11332E0430156C0F5018081882309F448C0218434
S11332F0328443845484C580D680E780F084C2013C
S1133300B101A70196018E010F5F1F4F0E94831820
S1133310882319F1D5011196ED91FC91129713961A
S11333208D919C9114971C9220911C1030911D102A
S11333302150304030931D1020931C10C20CD31C1C
S1133340E41CF51C09811A812B813C81B701A6017B
S11333500995BFEFB0931B1012C06114710481046E
S1133360910449F089819A81AB81BC8186159705C6
S1133370A805B90520F469807A808B809C80ED8152
S1133380FE813197FE83ED8323EF3FEFA20EB31E40
S11333904D815E814F5F5F4F09F0A4CF80911B1078
S11333A0882309F084CF10921A1080911C109091F8
S11333B01D1018161906D4F426B530E0C9016AEFB9
S11333C070E00E941A2286E09FEFDC016A9FC00130
S11333D06B9F900D7A9F900D1124820F931F88BDCF
S11333E0AA9A80916E00846080936E00BF81BFBFF3
S11333F027960FB6F894DEBF0FBECDBFCF91DF91F5
S11334001F910F91FF90EF90DF90CF90BF90AF90FE
S11334109F908F907F906F905F904F903F902F90F0
S113342008951F920F920FB60F9211242F933F937A
S11334304F935F936F937F938F939F93AF93BF93B8
S1133440EF93FF930E943219FF91EF91BF91AF91D7
S11334509F918F917F916F915F914F913F912F91A8
S11334600F900FBE0F901F9018952F923F924F927E
S11334705F926F927F928F929F92AF92BF92CF9200
S1133480DF92EF92FF920F931F93DF93CF9300D0BD
S113349000D0CDB7DEB71C012B0149015A016701E9
S11334A0780188EEC81683E0D80680E0E80680E05C
S11334B0F80638F480911A108823C1F18FEF8093B5
S11334C01B106FB7F89480919705482F50E0ADE03A
S11334D0B0E120E030E020C0FD018C911D968823EE
S11334E0C9F48FEF808332822182548243828186A1
S11334F09286A386B486C582D682E782F0868091BE
S11335001C1090911D10019690931D1080931C1017
S11335108FEF06C02F5F3F4F24173507ECF280E092
S11335206FBF8823F1F48FEF0E9461113E0108946C
S1133530611C711CC501B401A701960183010E949D
S113354083188823B9F3C80CD91CEA1CFB1C098115
S11335501A812B813C81C201B701A601F1010995B1
S113356006C080911A10882311F40E9432190F901A
S11335700F900F900F90CF91DF911F910F91FF90BB
S1133580EF90DF90CF90BF90AF909F908F907F90FF
S11335906F905F904F903F902F900895ABE0B0E014
S11335A0E4EDFAE10C946F225C014B017A01FC0119
S11335B017821682838181FD08C06FEF7FEF08C1F7
S11335C042E050E0E40EF51E04C03E010894611C84
S11335D0711CF501D380F401D3FC8591D3FE819154
S11335E04F01882309F4F1C0853259F4D3FC659165
S11335F0D3FE61914F01653219F0062F10E01BC014
S113360085E290E02BC0002309F4DFC08BEE90E04C
S1133610602F70E00E949D1E892B39F4033211F44F
S1133620106103C00C3661F41068F401D3FC0591F9
S1133630D3FE01914F0117FFE6CF002309F4C5C063
S113364084EE90E0602F70E00E949D1E892B51F063
S113365044E050E0E40EF51E8FE390E0B5010E94D3
S1133660271FB7CF033629F0033779F00335F1F478
S11336700BC087010E5F1F4FF70180819181B50157
S11336800E94271F7801A5CF1160F701C080D18067
S113369004C090E0B5010E94271FF60110FD85913A
S11336A010FF81916F018823A1F78ACF043611F0AE
S11336B0093639F517FF08C0F701208131814281AD
S11336C0538184E090E00AC0F701808191819C01DC
S11336D0442737FD4095542F82E090E0E80EF91E10
S11336E01F7E57FF08C050954095309521953F4F58
S11336F04F4F5F4F1064CA01B901A3012AE030E0C3
S113370034C00037A9F0013730F40835B1F00F3672
S113371009F05BC006C0053739F0083709F055C019
S113372008C028E030E00CC01F7E2AE030E008C06A
S11337301061146220E130E003C0146020E132E043
S113374017FF08C0F701608171818281938144E091
S113375050E008C0F70180819181BC0180E090E0D5
S113376042E050E0E40EF51EA3010E94531FD82E40
S1133770D618012F10E006FF05C08DE290E0B501D8
S11337800E94271F04FF15C0FE01ED0DF11D80816D
S1133790803379F080E390E0B5010E94271F02FF97
S11337A008C000721070C801885A9F4FB5010E946A
S11337B0271FDA94F301ED0DF11D808190E0B5012E
S11337C00E94271FDD20A9F704CFF50166817781C8
S11337D0CB012B96EEE00C948B225058BB27AA27E2
S11337E00ED0E5C0D6D030F0DBD020F031F49F3FCE
S11337F011F41EF4CBC00EF4E095E7FBC1C0E92F31
S1133800E7D080F3BA17620773078407950718F0A7
S113381071F49EF5FFC00EF4E0950B2EBA2FA02D87
S11338200B01B90190010C01CA01A0011124FF2769
S1133830591B99F0593F50F4503E68F11A16F04064
S1133840A22F232F342F4427585FF3CF4695379563
S11338502795A795F0405395C9F77EF41F16BA0B28
S1133860620B730B840BBAF09150A1F0FF0FBB1FD6
S1133870661F771F881FC2F70EC0BA0F621F731F1F
S1133880841F48F4879577956795B795F7959E3F7C
S113389008F0B3CF9395880F08F09927EE0F97950A
S11338A08795089504D06894B111B5C0089598D04F
S11338B088F09F5790F0B92F9927B751A0F0D1F015
S11338C0660F771F881F991F1AF0BA95C9F712C09F
S11338D0B13081F09FD0B1E008959CC0672F782F5C
S11338E08827B85F39F0B93FCCF38695779567950B
S11338F0B395D9F73EF490958095709561957F4F77
S11339008F4F9F4F0895E89409C097FB3EF490951C
S11339108095709561957F4F8F4F9F4F9923A9F0A4
S1133920F92F96E9BB279395F69587957795679533
S1133930B795F111F8CFFAF4BB0F11F460FF1BC077
S11339406F5F7F4F8F4F9F4F16C0882311F096E90A
S113395011C0772321F09EE8872F762F05C06623B8
S113396071F096E8862F70E060E02AF09A95660F71
S1133970771F881FDAF7880F9695879597F908952A
S113398097F99F6780E870E060E008959FEF80EC0E
S1133990089500240A9416161706180609060895B1
S11339A000240A9412161306140605060895092E17
S11339B00394000C11F4882352F0BB0F40F4BF2B86
S11339C011F460FF04C06F5F7F4F8F4F9F4F0895C6
S11339D057FD9058440F551F59F05F3F71F04795BC
S11339E0880F97FB991F61F09F3F79F087950895A1
S11339F0121613061406551FF2CF4695F1DF08C0C0
S1133A00161617061806991FF1CF869571056105DC
S1133A1008940895E894BB2766277727CB0197F984
S1133A2008950BD0C4CFB5DF28F0BADF18F0952382
S1133A3009F0A6CFABCF1124EECFCADFA0F3959F38
S1133A40D1F3950F50E0551F629FF001729FBB2781
S1133A50F00DB11D639FAA27F00DB11DAA1F649F2D
S1133A606627B00DA11D661F829F2227B00DA11DE0
S1133A70621F739FB00DA11D621F839FA00D611D66
S1133A80221F749F3327A00D611D231F849F600D87
S1133A90211D822F762F6A2F11249F5750408AF0C0
S1133AA0E1F088234AF0EE0FFF1FBB1F661F771F4C
S1133AB0881F91505040A9F79E3F510570F060CF88
S1133AC0AACF5F3FECF3983EDCF386957795679534
S1133AD0B795F795E7959F5FC1F7FE2B880F911D6A
S1133AE09695879597F90895EF92FF920F931F93F8
S1133AF0F22FF02E47FD02C0E4E001C0E4E1242FE0
S1133B00332727FD309537FF03C0309521953F4F6C
S1133B104F2D512F0F2FEE2E0E94B11F8F2D912F5D
S1133B201F910F91FF90EF900895CF93DF93BC0105
S1133B308230910510F462E070E0A0912810B091F9
S1133B402910ED01E0E0F0E040E050E021C0888180
S1133B5099818617970769F48A819B81309719F0B8
S1133B609383828304C09093291080932810FE01CC
S1133B7034C06817790738F44115510519F08417D2
S1133B80950708F4AC01FE018A819B819C01E9013F
S1133B902097E9F641155105A9F1CA01861B970B37
S1133BA0049708F4BA01E0E0F0E02AC08D919C91FA
S1133BB0119784179507F9F46417750781F4129621
S1133BC08D919C911397309719F09383828304C04D
S1133BD09093291080932810FD0132964FC0CA019A
S1133BE0861B970BFD01E80FF91F619371930297F0
S1133BF08D939C9343C0FD01828193819C01D901E3
S1133C001097A1F68091261090912710892B41F4EA
S1133C1080919A0590919B0590932710809326108C
S1133C2040919C0550919D054115510541F44DB7B6
S1133C305EB78091980590919905481B590B209186
S1133C4026103091271024173507B0F4CA01821BBF
S1133C50930B8617970780F0AB014E5F5F4F841775
S1133C60950750F0420F531F50932710409326108E
S1133C70F9016193719302C0E0E0F0E0CF01DF91BC
S1133C80CF910895CF93DF93009709F450C0EC01CE
S1133C9022971B821A82A0912810B09129101097A4
S1133CA009F140E050E0AC17BD0708F1BB83AA83DB
S1133CB0FE0121913191E20FF31FAE17BF0779F492
S1133CC08D919C911197280F391F2E5F3F4F398397
S1133CD0288312968D919C9113979B838A83411517
S1133CE0510571F4D0932910C093281020C0129666
S1133CF08D919C911397AD01009711F0DC01D3CF06
S1133D00FA01D383C28321913191E20FF31FCE17BD
S1133D10DF0769F488819981280F391F2E5F3F4F8F
S1133D20FA01318320838A819B8193838283DF918B
S1133D30CF910895F8940C94A822FC0105900616DE
S1133D4021F00020D9F7C00108953197CF010895DB
S1133D50FB01DC0102C001900D9241505040D8F7A4
S1133D600895FA01CF93FF93EF93223044F1253263
S1133D7034F5C22FE894CA3049F497FB3EF4909589
S1133D808095709561957F4F8F4F9F4F2C2F3327D0
S1133D9044275527FF93EF930E942E22EF91FF9122
S1133DA0605D6A330CF0695D6193B901CA016050CA
S1133DB070408040904051F716F4CDE2C1931082D8
S1133DC08F919F91CF910C94EB21FA01CF93FF93A4
S1133DD0EF932230CCF02532BCF4C22F2C2F3327A2
S1133DE044275527FF93EF930E942E22EF91FF91D2
S1133DF0605D6A330CF0695D6193B901CA0160507A
S1133E0070408040904051F710828F919F91CF91E4
S1133E100C94EB21A0E0B0E0E0E1FFE10C94792206
S1133E200F8118859E01255F3F4FF80183818860CB
S1133E308383C80169857A85A9010E94CE1AF80195
S1133E402381277F23832096E4E00C9495220F930B
S1133E501F93CF93DF938C01EB018B8181FF1BC0F8
S1133E6082FF0DC02E813F818C819D8128173907E7
S1133E7064F4E881F9810193F983E88306C0E88555
S1133E80F985802F0995892B31F48E819F810196C4
S1133E909F838E8302C00FEF1FEFC801DF91CF9184
S1133EA01F910F910895FA01AA27283051F120316A
S1133EB081F1E8946F936E7F6E5F7F4F8F4F9F4FBA
S1133EC0AF4FB1E03ED0B4E03CD0670F781F891FFC
S1133ED09A1FA11D680F791F8A1F911DA11D6A0FCA
S1133EE0711D811D911DA11D20D009F468943F917D
S1133EF02AE0269F11243019305D3193DEF6CF017C
S1133F000895462F4770405D4193B3E00FD0C9F741
S1133F10F6CF462F4F70405D4A3318F0495D31FDAE
S1133F204052419302D0A9F7EACFB4E0A695979501
S1133F30879577956795BA95C9F7009761057105D7
S1133F4008959B01AC010A2E069457954795379521
S1133F502795BA95C9F7620F731F841F951FA01D7B
S1133F600895A9E0B0E0E7EBFFE10C946F226A0149
S1133F70122FA02EBE2C2BE3201718F42CE3922E24
S1133F8002C0902E9394AE014F5F5F4F27E0092D3E
S1133F900E941321BC018981E82EFF24C701897086
S1133FA09070019711F4ADE209C0B1FE02C0ABE21A
S1133FB005C0B0FC02C0A0E001C0A0E2E3FE3BC02B
S1133FC0AA2311F423E001C024E0211710F020E01B
S1133FD002C0121B212FEB2CB4FE02C0322F0AC0E8
S1133FE0F601322F80E202C0819331503323E1F78E
S1133FF0C20ED11CAA2319F0F601A1936F01F60198
S11340003196E2FE05C09EE4D6019C9381E404C08F
S11340109EE6D6019C9381E611968C939183329609
S1134020DF01832F90E202C09D9381508823E1F742
S1134030E30FF11D40C0E2FE42C0AA2311F423E0C5
S113404001C024E0211710F020E002C0121B212F30
S1134050EB2CB4FE02C0922F0AC0F601922F80E22C
S113406002C0819391509923E1F7C20ED11CAA2377
S113407019F0F601A1936F01F6013196E2FE08C032
S113408089E4D6018C938EE411968C9386E407C060
S113409089E6D6018C938EE611968C9386E681830D
S11340A03296DF01892F20E202C02D9381508823AC
S11340B0E1F7E90FF11D10822EEF3FEFAFC01616A6
S11340C017061CF041E050E003C0AB014F5F5F4FA7
S11340D0AA2019F480E090E003C08A2D90E00196B4
S11340E020E030E0AA2311F021E030E0240F351F56
S11340F0280F391F812F90E02817390714F020E08A
S113410002C0121B212F4B2D50E0CA018071907008
S1134110B4FC0DC0B3FC0BC0F601322F40E202C068
S1134120419331503323E1F7C20ED11C01C0322F29
S1134130AA2319F0F601A1936F01892B11F0132F13
S11341400AC0F601132F80E302C08193115011239A
S1134150E1F7C30ED11C092D060FBA8090E1892E18
S1134160912C8E209F20E4FE04C0F1E3BF1609F4D5
S11341700150101614F001E003C0093008F008E003
S11341809B0177FF02C020E030E0CB010196821B47
S1134190930BFE013196E80FF91F8EE2F82E3B01D6
S11341A0601A71088A2D90E044275527481B590B43
S11341B08FEF2F3F380719F4D601FD926D01621776
S11341C073072CF06216730614F4808101C080E337
S11341D02150304031962417350724F0D6018D93B1
S11341E06D01E6CF2617370749F4B5E3BB1528F070
S11341F0BB1621F48114910409F481E3F60181933F
S1134200D601812F90E202C09C938150119688239D
S1134210D9F7E10FF11D108220E030E0C9012996A1
S1134220EEE00C948B22283008F027E03327DA01E3
S1134230990F311D87FD916000966105710539F470
S113424032602E5F3D9330E32A95E1F708959F3F56
S113425030F080387105610509F03C5F3C5F3D93A7
S1134260913008F08068911DDF93CF931F930F93D3
S1134270FF92EF92192F987F9695E92F9695969530
S1134280E90FFF27E556FB4F99273327EE24FF2438
S1134290A701E70105900894079428F4360FE71E58
S11342A0F81E491F511D660F771F881F991F06941A
S11342B0A1F70590079428F4E70EF81E491F561F2E
S11342C0C11D770F881F991F661F0694A1F70590DB
S11342D0079428F4F80E491F561FC71FD11D880FD5
S11342E0991F661F771F0694A1F70590079420F481
S11342F0490F561FC71FD81F990F661F771F881FA6
S11343000694A9F784911095177041F0D695C79536
S113431057954795F794E7941A95C1F7E1E4F4E0CB
S113432068941590159135916591959105907FE26A
S11343307395E118F10A430B560BC90BD009C0F76A
S1134340E10CF11E431F561FC91FD01D7EF47033AC
S113435011F48A95E6CFE894015030F0080F0AF47E
S11343600027021708F4202F2395022F7A3328F010
S113437079E37D932A95E9F710C07D932A9589F610
S1134380069497956795379517951794E118F10A50
S1134390430B560BC90BD00998F023957E91739566
S11343A07A3308F070E37C932013B8F77E91706140
S11343B07D9330F0839571E37D9370E32A95E1F763
S11343C01124EF90FF900F911F91CF91DF919927C6
S11343D087FD90950895DC01FC01672F7191772387
S11343E0E1F7329704C07C916D9370836291AE17AC
S11343F0BF07C8F30895629FD001739FF001829FA5
S1134400E00DF11D649FE00DF11D929FF00D839F5F
S1134410F00D749FF00D659FF00D9927729FB00DFC
S1134420E11DF91F639FB00DE11DF91FBD01CF010F
S113443011240895AA1BBB1B51E107C0AA1FBB1F6F
S1134440A617B70710F0A61BB70B881F991F5A951C
S1134450A9F780959095BC01CD010895A1E21A2E8B
S1134460AA1BBB1BFD010DC0AA1FBB1FEE1FFF1F14
S1134470A217B307E407F50720F0A21BB30BE40B64
S1134480F50B661F771F881F991F1A9469F76095AB
S11344907095809590959B01AC01BD01CF01089565
S11344A097FB092E05260ED057FD04D0D7DF0AD07E
S11344B0001C38F450954095309521953F4F4F4F4F
S11344C05F4F0895F6F790958095709561957F4FAD
S11344D08F4F9F4F08952F923F924F925F926F920A
S11344E07F928F929F92AF92BF92CF92DF92EF9280
S11344F0FF920F931F93CF93DF93CDB7DEB7CA1B01
S1134500DB0B0FB6F894DEBF0FBECDBF09942A882B
S1134510398848885F846E847D848C849B84AA84D3
S1134520B984C884DF80EE80FD800C811B81AA8160
S1134530B981CE0FD11D0FB6F894DEBF0FBECDBF2B
S1134540ED010895EE0FFF1F0590F491E02D0994FD
S1074550F894FFCF09
S11345540A20546F5F696E742764206E756D6265FA
S1134564723A000A004C6F6F702000636F6D6D61C6
S11345746E643A0A54696D6520746F2065786563C6
S11345847574653A20000D0A002020536572766F15
S1134594202300486173206368616E6765643F3A51
S11345A4003A2054617267657420706F733A200076
S11345B43A2043757272656E7420706F733A2000EA
S11345C42053706565643A2000205370743A2000C7
S11345D4526563656976656420636861723A200094
S11345E443757272656E742073706565643A005223
S11345F46563656976656420736572766F206E758C
S11346046D62657220636F6D6D616E64200A005281
S11346146563656976656420706F736974696F6E28
S113462420636F6D6D616E64200A00526563656971
S113463476656420737065656420636F6D6D616E67
S113464464200A0052656365697665642074696D43
S11346546520636F6D6D616E64200A005265636545
S113466469766564206469676974200A20437572F5
S113467472656E7420737562636F6D6D616E642010
S1134684697320005365742063757272656E7420B7
S1134694736572766F20746F3A0053657420637582
S11346A47272656E7420736572766F2074617267BA
S11346B4657420706F736974696F6E20746F3A0047
S11346C45365742063757272656E742073657276B3
S11346D46F20737065656420746F3A0053657420A9
S11346E46D6F76656D656E742074696D6520746F85
S11346F43A00416674657220636F70792E0A5265BC
S11347046365697665642000496E2070726F636521
S113471473732000060024F400803E1000490555FC
S11347240500000000003504FFFF8D039003710CA5
S1134734760C00000000000000C01797171217F849
S113474416C800C900CC00CD00CE000000021093AE
S113475403840381037B039603990387038A030079
S1134764000055030100000000000000280020A1FF
S1134774070080841E0000DE0B000080000000722D
S113478403DC05E803000000000000000000000052
S113479400800000007503DC05E80300000000004D
S11347A400000000000000800000007803DC05E83D
S11347B4030000000000000000000000008000006E
S11347C4009C03DC05E80300000000000000000076
S11347D4000000800000009F03DC05E803000000E3
S11347E400000000000000000080000000A203DCC0
S11347F405E8030000000000000000000057030661
S1134804000000000000000000000080000000AB75
S113481403DC05E8030000000000000000000000C1
S11348240080000000AE03DC05E803000000000083
S11348340000000000000080000000B103DC05E873
S113484403000000000000000000000000800000DD
S113485400BD03DC05E803000000000000000000C4
S113486400000080000000C003DC05E80300000031
S113487400000000000000000080000000C303DC0E
S113488405E80300000000000000000000630306C4
S1134894000000000000000000BC07E80300000062
S11348A40000000000A40BE8030000000000000066
S11348B40000000000A70D00000000B80D00000077
S11348C400BE0DA60C00000000B80CB80C000000DB
S11348D400D90DC50D00000000D90DD30D00000052
S11148E400A00CA30CB2120120003010000042
S9030000FC
