:100000000C9434020C945C020C945C020C945C0220
:100010000C945C020C945C020C945C020C945C02E8
:100020000C945C020C945C020C945C020C945C02D8
:100030000C945C020C945C020C945C020C945C02C8
:100040000C945C020C945C020C945C020C945C02B8
:100050000C945C020C9475040C941E120C945C02BB
:100060000C945C020C945C020C945C020C945C0298
:100070000C945C020C945C020C945C020C945C0288
:100080000C945C020C945C020C945C020C945C0278
:100090000C941A050C945C020C9445050C945C02BB
:1000A0000C945C020C945C020C945C020C945C0258
:1000B0000C945C020C945C020C945C020C945C0248
:1000C0000C945C020C945C020C945C020C945C0238
:1000D0000C945C020C945C020C945C020C945C0228
:1000E0000C945C0245464765666700202B2D2E3038
:1000F00031323334353637383968004C6F6F703DE4
:10010000004142434445464748494A4B4C4D4E4FB7
:10011000505152535455565758595A0A00C7030064
:100120006E000247003500024400069A03CB03002C
:100130006E00044800350004440004CA03CF0301E4
:100140006F000288003600028000069403D303018A
:100150006F00048A003600048000049703D703016F
:100160006F00088C003600088000029A03DB03024F
:10017000700002B300370002B000069103DF0302F3
:10018000700004B400370004B00004D603E3030396
:100190007100029800380002900006BE03E70303D6
:1001A0007100049A00380004900004C103EB0303BB
:1001B0007100089C00380008900002C403EF03049B
:1001C000720002A800390002A00006CD03F3030468
:1001D000720004AA00390004A00004D003F703044D
:1001E000720008AC00390008A00002D303FB03052D
:1001F00073000228013A0002200106DF03FF030515
:100200007300042A013A0004200104E203030405F8
:100210007300082C013A0008200102E50307044698
:100220000045000700021037034400014400024566
:1002300000080000011D016E0001350001000000F2
:1002400000010000010000010000470312048400C7
:10025000810007FF03105503800001800002810028
:10026000088100103D016F000136000186006F001B
:1002700020360020810040000047031D04B200B179
:1002800000070002103703B00001B00002B10008FF
:100290000000016D01700001370001000000000145
:1002A0000000010000010000650328049400910093
:1002B00007FF031055039000019000029100089180
:1002C00000108D0171000138000196007100203886
:1002D0000020910040C70347033304A400A1000796
:1002E000FF03105503A00001A00002A10008A10017
:1002F00010BD01720001390001A600720020390012
:1003000020A10040D90347033E042401210107FF37
:1003100003105503200101200102210108210110D1
:10032000ED017300013A000126017300203A00201C
:10033000210140DC0347030001FFFF0203FFFFFF31
:10034000FFFF05FFFFFF0706000000010008004057
:100350000000010004000102030405060708090A61
:100360000B0CFF0E0F0800000001000800200040E9
:10037000008000000100043D0265027B029102A79B
:1003800002BD02D302F5020B03210337034D0363C1
:1003900003EA0310EA0320EA0340EA0380F00301C2
:1003A000F00302F00304F00308F00310F00320F65A
:1003B0000304F60308F60320F60340F60380FC036B
:1003C00008FC0310FC0320FC03800204200804083E
:1003D0000804100804200804400E04010E04020E54
:1003E00004080E04100E04208813250024002300A6
:1003F0002800270026002B002A0029002E002D00AF
:100400002C003400330032000201010100010B0115
:100410000A010901E807E007204572726F723A2568
:10042000640D0A005573657200576562626F744C03
:10043000696200EE3E9C7A9E8EF62E0C78AE1CAA67
:100440002A3ACEE60AB61E387CB86E76DAFC60DA56
:10045000F266B63EE0FEE6830E390F550F0E0F40F2
:100460000F240F00A305B30511241FBECFEFD1E267
:10047000DEBFCDBF13E0A0E0B2E0E0E3FDE202C0EA
:1004800005900D92A23CB107D9F714E0A2ECB3E0BD
:1004900001C01D92AD3EB107E1F714E0C8E6D4E01B
:1004A00004C02297FE010E949216C436D107C9F7F4
:1004B0000E94D10A0C94FF140C940000DF93CF9398
:1004C00000D000D0CDB7DEB769837A838B839C835D
:1004D00080E090E0A0E0B0E0BC01CD010F900F9073
:1004E0000F900F90CF91DF910895DF93CF9300D0BD
:1004F0000F92CDB7DEB79A838983E981FA81808133
:1005000091810E94370A1B82882311F481E08B833A
:100510008B810F900F900F90CF91DF910895DF9313
:10052000CF9300D0CDB7DEB79A838983E981FA8172
:10053000808191810E9475020F900F90CF91DF9181
:100540000895DF93CF9300D0CDB7DEB79A83898328
:10055000E981FA81808191810E94370A0F900F9082
:10056000CF91DF910895DF93CF9300D0CDB7DEB761
:100570009A838983E981FA81808191810E94A10215
:100580000F900F90CF91DF910895DF93CF9300D01C
:1005900000D000D0CDB7DEB79A8389834B835C83CC
:1005A0006D837E83E981FA81808991892B813C81E9
:1005B0004D815E81BA01A9010E94C40C26960FB636
:1005C000F894DEBF0FBECDBFCF91DF910895DF93CA
:1005D000CF9300D0CDB7DEB79A838983E981FA81C2
:1005E000808991890E945F0B0F900F90CF91DF91CE
:1005F0000895DF93CF9300D00F92CDB7DEB79A83E3
:1006000089836B83E981FA81808191816B810E946A
:1006100009090F900F900F90CF91DF9108950F93DC
:100620001F93DF93CF93CDB7DEB762970FB6F894E1
:10063000DEBF0FBECDBF688779878A879B872C87EF
:100640003D874E875F878DE494E00E948F02898BFF
:100650002989222309F081E08DE494E00E94B3020D
:100660008A8B2A89222309F081E08FE494E040E01C
:1006700050E060E070E00E94C5028FE494E00E94C8
:10068000E702188A882311F421E0288B88898823BF
:1006900031F188859985AA85BB8581309105A105B1
:1006A000B10541F421E031E08FE494E0B9010E940A
:1006B0009F0815C02BEF30E08FE494E0B9010E9451
:1006C0009F088FE494E0288539854A855B85BA01C7
:1006D000A9010E94DE088FE494E00E9487088C85BF
:1006E0009D85AE85BF8528EE33E040E050E0BC013B
:1006F000CD010E941C16DA01C9018C839D83AE8353
:10070000BF838C819D81AE81BF8120E137E240E0D3
:1007100050E0BC01CD010E941C16DC01CB019B8383
:100720008A838A819B8123E18838920744F080E1A3
:1007300097E22A813B81821B930B9B838A838A8168
:100740009B8160E070E048E853E121E83FEF0FE76C
:1007500010E00E944409898381E694E069810E9447
:10076000F90285E694E069810E94F90289E694E045
:1007700069810E94F9028DE694E069810E94F90284
:1007800081E794E069810E94F90285E794E069813C
:100790000E94F9028BE794E069810E94F9028FE7D9
:1007A00094E069810E94F90283E894E069810E94E3
:1007B000F90287E894E069810E94F9028BE894E0ED
:1007C00069810E94F9028FE894E069810E94F90230
:1007D00080E090E0A0E0B0E0BC01CD0162960FB6F1
:1007E000F894DEBF0FBECDBFCF91DF911F910F9167
:1007F0000895DF93CF93CDB7DEB70E94F004CF9179
:10080000DF910895FC016FB7F89486B52091C2037B
:100810003091C3034091C4035091C50320833183B9
:100820004283538326B530E03583248390E0281734
:10083000390710F0A99B0FC080819181A281B381FB
:100840008058914CAF4FBF4F80839183A283B38375
:1008500086B5848315826FBF0895EF92FF920F9340
:100860001F93FC01E080F180028113816481758116
:1008700080E090E020E83EE340E050E00E94E9158F
:100880002AEF30E040E050E00E941C162E0D3F1D84
:10089000401F511FB901CA011F910F91FF90EF90A6
:1008A00008950F931F93DF93CF9300D000D000D013
:1008B000CDB7DEB78E010F5F1F4FC8010E94020443
:1008C000C8010E942D0426960FB6F894DEBF0FBE15
:1008D000CDBFCF91DF911F910F910895A99AEEE6B8
:1008E000F0E080818260808308951F920F920FB69E
:1008F0000F9211242F938F939F93AF93BF93809167
:10090000C2039091C303A091C403B091C503805862
:10091000914CAF4FBF4F8093C2039093C303A093FA
:10092000C403B093C5032091DB042223B9F1399BA2
:1009300035C08091C603882319F081508093C60387
:100940008091C603882351F58091DC04882359F4F3
:10095000822F992787FD909597FF03C090958195E9
:100960009F4F8093DC0427FD02C09FE101C09FE000
:100970002091DD04222341F08091DC04815080939A
:10098000DC04882309F49DE71092DD04222319F486
:1009900081E08093DD049093C603319ABF91AF91BB
:1009A0009F918F912F910F900FBE0F901F901895D0
:1009B000682F8EE492E00E94670B90E0089580EA31
:1009C00093E09093E1048093E0048091E2048C7FB3
:1009D0008093E20480EE94E06FEF0E94AF0A0895E6
:1009E00089EE92E00E946A0789E793E00E946A0715
:1009F00008950F931F9380913B0290913C026FEFFB
:100A00000E94610A00E715E0C8010E94CF09C801F1
:100A10000E943C0B89E092E040E052EC61E070E023
:100A20000E943D0E8DE392E060E20E94CD0C1F918A
:100A30000F9108951F920F920FB60F9211242F93CA
:100A40003F934F935F936F937F938F939F93AF9356
:100A5000BF93EF93FF93E0913502F09136026081EE
:100A600089E092E00E94710FFF91EF91BF91AF91E9
:100A70009F918F917F916F915F914F913F912F91B6
:100A80000F900FBE0F901F9018951F920F920FB6E8
:100A90000F9211242F933F934F935F936F937F9304
:100AA0008F939F93AF93BF93EF93FF9389E092E06F
:100AB0000E941C10FF91EF91BF91AF919F918F9178
:100AC0007F916F915F914F913F912F910F900FBE4A
:100AD0000F901F90189589E092E00E948B0F089567
:100AE000682F89E092E00E94121090E00895282F6C
:100AF0006115710519F4A0E0B0E002C0DB011297A6
:100B0000ED91FC9111970190F081E02DCD01622FC4
:100B100009950895009719F4A0E0B0E002C0DC0147
:100B20001297ED91FC9111970280F381E02DCD0198
:100B300009950895862F90E008958FEF9FEF08950F
:100B40008FEF9FEF089587E994E09093EA048093F4
:100B5000E9049093E8048093E7049093EC04809375
:100B6000EB040895FFCF80EE94E090934C048093C3
:100B70004B0489E893E090934A04809349048BE303
:100B800092E090934E0480934D0467E775E0709374
:100B90005A04609359044AE855E050935C0440932A
:100BA0005B04A3E0A093540410925E0410925D04D1
:100BB00085E993E09093500480934F048EE492E093
:100BC0009093600480935F0485E692E090936204C2
:100BD0008093610490936404809363048BE792E0B4
:100BE00090936604809365049093680480936704EF
:100BF00081E992E090936A048093690490936C0475
:100C000080936B0487EA92E090936E0480936D0466
:100C10009093700480936F048DEB92E09093720434
:100C200080937104909374048093730483ED92E035
:100C3000909376048093750490937804809377045E
:100C400089EE92E090937A048093790485EF92E0A4
:100C500090937C0480937B0490937E0480937D0426
:100C60008BE093E09093800480937F0490938204C0
:100C70008093810481E293E09093840480938304C1
:100C8000909386048093850487E393E0909388048F
:100C90008093870490938A04809389048DE493E081
:100CA00090938C0480938B0490938E0480938D0496
:100CB00083E693E09093900480938F049093920442
:100CC0008093910489E793E0909394048093930434
:100CD0007093A00460939F045093A2044093A104D6
:100CE000A0939A041092A4041092A30429E032E085
:100CF0003093A6042093A504E5E9F4E0F0931F02E5
:100D0000E0931E0285EA93E0918380833093AC04E4
:100D10002093AB041092AD047093B9046093B804AF
:100D20005093BB044093BA04A093B3041092BD0443
:100D30001092BC0485EB93E09093AF048093AE04D3
:100D400008951F93162F8091E0049091E1040E9472
:100D50004C0A882329F080EE94E0612F0E94AF0AAC
:100D60001F910895FC01828193810E94AF0A08952A
:100D7000FC01808991890E94670B90E00895FC0135
:100D8000808D882329F0868997890E9453100895C1
:100D9000808991890E948B0F0895FC018089918937
:100DA0000E948B0F0895FC01808991890E94121086
:100DB00090E008952DE132E0F901A591B49184E02D
:100DC0001A968C931A9784B5826084BD8AEF87BD8A
:100DD00080E094E08D939C9385B5856085BD215D11
:100DE0003F4FF901A591B4919EE01A969C931A97F2
:100DF000E0E8F0E0808182608083E1E8F0E08081DB
:100E00008860808380818061808340E45CE95093C6
:100E100087004093860028E030E02D933C9380814A
:100E200082608083EAEAF2E0A591B4911A969C93DD
:100E30001A97E0E9F0E0808182608083E1E9F0E0E8
:100E40008081886080838081806180835093970057
:100E5000409396002D933C93808182608083E9EDDE
:100E6000F2E0A591B4911A969C931A97E0EAF0E00B
:100E7000808182608083E1EAF0E080818860808305
:100E80008081806180835093A7004093A6002D93BA
:100E90003C93808182608083E8E0F3E0A591B49187
:100EA0001A969C931A97E0E2F1E080818260808339
:100EB000E1E2F1E0808188608083808180618083CD
:100EC00050932701409326012D933C9380818260AB
:100ED000808308958F929F92AF92BF92CF92DF92BC
:100EE000EF92FF920F931F93CF93DF936C01DC017E
:100EF00012968C91C82FD0E021977E01EE0CFF1C3A
:100F000094E1892E94E0992E8FE2A82E47C0D60155
:100F1000ED91FC91EE0DFF1D05911491F801D58224
:100F2000C482868197810E948E0DFC01D80155965E
:100F30009C938E9354973296B49011969C928E9275
:100F400016968D919C91179760E00E94880ABA9C32
:100F5000C0011124835C9D4FFC01A591B4918D913A
:100F60009C91D80153969C938E93529718966D91AD
:100F70007C9119971A964D915C911B97C8010E941C
:100F80000608C80160E00E940909C8016FEF0E94CD
:100F900029092197EEEFFFEFEE0EFF1EFFEFCF3F87
:100FA000DF0709F0B4CFDF91CF911F910F91FF9030
:100FB000EF90DF90CF90BF90AF909F908F9008956B
:100FC000FC0184899589611162E00E94DA0D08951F
:100FD000EF92FF920F931F93FC01E488F58824851C
:100FE000358506851785862F992787FD909561E8B9
:100FF0007FEF4FE750E00E948B09BC01C7010E94C0
:10100000FC0D1F910F91FF90EF9008959F92AF926A
:10101000BF92CF92DF92EF92FF920F931F93CF93E5
:10102000DF93EC017B018A01798768875B874A87B8
:101030008C819D81892B09F45EC09FB6F8948A89C2
:101040009B8968EE73E00E9408165B01CC24DD24C6
:10105000B701601B710B80E090E0A60195010E9432
:10106000E91524E130E040E050E00E941C16C9017F
:10107000DA019C01AD01DA01C9018070907000971E
:10108000A105B10539F086EE0E94D4092FEF3FEF9C
:1010900040E050E03D872C870E0D1F1DB80180E019
:1010A00090E0A60195010E94E91524E130E040E0BE
:1010B00050E00E941C16C901DA019C01AD01DA0161
:1010C000C901807090700097A105B10539F086EED6
:1010D0000E94D4092FEF3FEF40E050E03F872E877A
:1010E0008B8180FF07C06A8161506A836F5FCE0188
:1010F0000E9409099FBEDF91CF911F910F91FF9030
:10110000EF90DF90CF90BF90AF909F9008950F9396
:101110001F938C01DC01ED91FC910190F081E02D99
:101120006DE00995D801ED91FC910190F081E02DE1
:10113000C8016AE00995C8011F910F9108950F93A6
:101140001F93CF93DF93182F092FEB0104C0812F3A
:10115000902F0E946710FE01219664916623B9F7D3
:10116000812F902FDF91CF911F910F9108950F93B1
:101170001F93DF93CF93CDB7DEB7A1970FB6F89447
:10118000DEBF0FBECDBF8C01223008F422E0CB01C0
:10119000BA01AE014F5F5F4F30E00E940D15BC01F8
:1011A000C8010E948210A1960FB6F894DEBF0FBE50
:1011B000CDBFCF91DF911F910F9108952AE00E943A
:1011C000B7080895AB0160E070E00E94DE08089562
:1011D000AB0160E070E02AE00E94B7080895462F56
:1011E00050E060E070E02AE00E94B7080895EF92B6
:1011F000FF920F931F93242FE62EFF2400E010E0B0
:10120000B801A7010E94B7081F910F91FF90EF90BE
:1012100008951F93CF93DF93EC01162F61380CF4E0
:1012200011E8E881F981309779F025913491211501
:10123000310551F08B8181FD02C0612F02C0612F09
:101240006195CE01F90109951A83DF91CF911F9124
:101250000895DC01962F917013968C9113978E7FD1
:10126000892B13968C9313978D919C9111970097CE
:1012700051F0FC013296259134912115310519F078
:10128000CD01F901099508954F925F926F927F9277
:101290008F929F92AF92BF92CF92DF92EF92FF9286
:1012A0000F931F932B013A0159017801E21AF30AB7
:1012B0000027F7FC0095102F9C01261B370B4427B5
:1012C00037FD4095542FC801B7010E94E9156418F5
:1012D0007508882477FC8094982CA40193010E94BF
:1012E0003E16C901DA01CC24B7FCC094DC2CA80E50
:1012F000B91ECA1EDB1EC5011F910F91FF90EF9012
:10130000DF90CF90BF90AF909F908F907F906F9025
:101310005F904F9008954F925F926F927F928F925D
:101320009F92AF92BF92CF92DF92EF92FF920F9374
:101330001F932B015A0139017801E21AF30A00E0E8
:1013400010E09C01261B370B442737FD4095542F96
:10135000C801B7010E94E915A418B508CC24B7FC50
:10136000C094DC2CA60195010E943E168824992485
:10137000260D371D481D591DC9011F910F91FF9062
:10138000EF90DF90CF90BF90AF909F908F907F9025
:101390006F905F904F9008958091DB040895909333
:1013A000DF048093DE0408951F93182F8091DB04DF
:1013B000882309F05AC01093DB048091E0049091D7
:1013C000E104009749F00E944C0A882329F080EE3E
:1013D00094E060E00E94AF0A8091EB049091EC04ED
:1013E000009709F442C017FF12C000D000D0ADB77B
:1013F000BEB712969C938E93119789E294E014964F
:101400009C938E9313970E94321511950CC000D0B7
:1014100000D0EDB7FEB79283818384E294E0948399
:1014200083830E94321500D0EDB7FEB731968091CC
:10143000EB049091EC04ADB7BEB712969C938E93DB
:10144000119788E194E093838283812F992787FD08
:101450009095958384830E943215EDB7FEB736963A
:101460000FB6F894FEBF0FBEEDBF1F9108959C010B
:10147000009781F0FC01859194910496FC01A5915F
:10148000B4912E5F3F4FF90194918C91892311F013
:101490008FEF089580E008959C01009781F0FC0192
:1014A000859194910296FC01A591B4912E5F3F4FD6
:1014B000F90194918C91892311F08FEF089580E0C8
:1014C0000895CF93DF939C010097F9F0FC014591BB
:1014D0005491CA010296FC01A591B491FA01C591FB
:1014E000D4912E5F3F4FF90194913FB7F8948C91BE
:1014F000292F209582238C93662319F08881892BCC
:1015000002C08881822388833FBFDF91CF910895F5
:10151000CF93DF939C010097F9F0FC014591549122
:10152000CA010296FC01C591D491FA01A591B4912A
:101530002E5F3F4FF90124913FB7F894662319F0CD
:101540008C91822B04C08C91922F909589238C933F
:101550008881822B88833FBFDF91CF9108951F93AD
:10156000CF93DF93EC01162F888199810097A9F022
:101570003A8130FD05C020E0662309F421E0122FF6
:1015800031FD06C0612F0E94880A8A8182608A83A9
:1015900088819981612F0E943711DF91CF911F912E
:1015A00008950E94DF04F8940E94DA060E946E04F7
:1015B00078940E94F9040E94F9030E9451046093F8
:1015C000C2047093C3048093C4049093C5040E9422
:1015D0005E026093C6047093C7048093C80490931E
:1015E000C90478940E94E3108091C6049091C704C6
:1015F000A091C804B091C9040097A105B10519F4E0
:1016000016C00E94E3106091C2047091C3048091DF
:10161000C4049091C5042091C6043091C704409140
:10162000C8045091C9040E949810882351F30E9465
:1016300051049B01AC016093C2047093C304809376
:10164000C4049093C5046091BE047091BF0480915E
:10165000C0049091C1046F5F7F4F8F4F9F4F609385
:10166000BE047093BF048093C0049093C1040E9491
:101670000F03AFCF90E008954FB7F8942091B903CE
:101680003091BA039093BA038093B9034FBFC90155
:1016900008951F93182F8A3031F4E091B903F09127
:1016A000BA038DE00995E091B903F091BA03812F57
:1016B00009951F9108958AE00E94490B0895FC0145
:1016C000848980FD02C080E008958FEF0895CF9255
:1016D000DF92EF92FF920F931F93CF93DF93EC0172
:1016E000D62E8C819D81892BA9F58A859B850196B3
:1016F0000E94FA139D838C83009761F120E030E013
:1017000007C0EC81FD81E20FF31F10822F5F3F4F76
:101710008A859B8582179307A0F7198618861F82F2
:101720001E828C898E7F8C8B00E010E00EC0C80179
:10173000880F991FE881F981E80FF91F859194912D
:1017400060E20E94CD0C0F5F1F4F8A819B810817BA
:10175000190768F3EC81FD81309709F43EC08AE0F7
:10176000D81619F588859985E80FF91F1082198612
:101770001886CFB6F8948C8980FD15C08C8981605D
:101780008C8B8C898D7F8C8B1F821E820E945104D2
:101790009B01AC01EC84FD840E851F8587EF9BE0E7
:1017A000BE010E944212CFBE18C08DE0D816A9F02B
:1017B000288539858A859B852817390770F4E20FBB
:1017C000F31F2FB7F894D0821182888599850196EE
:1017D000998788871F821E822FBF8D2DDF91CF9121
:1017E0001F910F91FF90EF90DF90CF9008952F926F
:1017F0003F924F925F926F927F928F929F92AF92A1
:10180000BF92CF92DF92EF92FF920F931F93CF93ED
:10181000DF93382E292E2A013B01C82FD92F0C81A6
:101820001D818E819F81080F191FF80180808C898E
:1018300086958170882029F4A888B988CA88DB88B1
:1018400004C0AC84BD84CE84DF848823D1F4882096
:10185000C1F0F80132918F010F5F1F4F4A815B8108
:10186000F80180E090E007C02081222351F0231787
:1018700041F43196019684179507B0F399249A9410
:1018800001C099248C8986958170292D332727FDE5
:10189000309590E028173907C1F0A601950162E064
:1018A00056954795379527956A95D1F7992D92705A
:1018B0008C898D7F892B8C8B992019F059016A01B5
:1018C00004C0A21AB30AC40AD50AEE24FF2418C021
:1018D000C701880F991FE881F981E80FF91F8591E9
:1018E0009491992039F4F8016081662319F00F5F13
:1018F0001F4F01C060E20E94CD0C0894E11CF11C56
:101900008A819B81E816F90618F38820B1F41F82BA
:101910001E8288899989AA89BB890097A105B1058A
:1019200029F0EC81FD818081882319F48C898E7FD8
:1019300002C08C898D7F8C8B07C0992029F48E8101
:101940009F8101969F838E838C8980FF0AC087EFD9
:101950009BE0632D722DA3019201860175010E9407
:101960004212DF91CF911F910F91FF90EF90DF9086
:10197000CF90BF90AF909F908F907F906F905F902F
:101980004F903F902F900895FC018FB7F894408BB3
:10199000518B628B738B8FBF0895EF92FF920F93E1
:1019A0001F93CF93DF938C01E62EFC01808981FD8C
:1019B00012C0C0E0D0E0F801EC0FFD1F80819181E2
:1019C00060E00E94880A2296C031D105A1F7F80193
:1019D00080898260808B8E2D0E94530DF82E80FFAF
:1019E00007C0F80186859785892B11F480E1F82ED0
:1019F000F801808980FFF094C0E0D0E0F801EC0F9E
:101A0000FD1F80819181F7FE03C00E94131102C067
:101A10000E94EE102296C031D10511F0FF0CEECFDE
:101A20008E2DDF91CF911F910F91FF90EF90089530
:101A3000EF92FF920F931F93CF93DF938C01E62ECB
:101A4000F42EFC01808981FD12C0C0E0D0E0F801D5
:101A5000EC0FFD1F8081918160E00E94880A229630
:101A6000C031D105A1F7F80180898260808BF8012F
:101A7000808980FD06C0FF2019F4FF24FA9401C07C
:101A8000FF24EE2DF0E0EE0FFF1FE00FF11F80812D
:101A900091816F2D0E943711DF91CF911F910F918E
:101AA000FF90EF900895E82F81548A3128F4F0E0F8
:101AB000EE50FC4F849108958E2F81568A3128F480
:101AC000F0E0EE52FC4F849108958E2F80538A30BF
:101AD00028F4F0E0E35EFB4F84910895EA3028F4A7
:101AE000F0E0E35BFB4F84910895ED3211F482E066
:101AF0000895EB3579F0EB3769F0E83259F0ED35C0
:101B000059F0ED3749F0E93239F080E0EE3229F44E
:101B100081E008958CE9089580EF0895BF92CF92F7
:101B2000DF92EF92FF920F931F93CF93DF936C019D
:101B3000B09000022DE132E090E0C0E0D0E02DC096
:101B4000285F3F4FF901E49028503040F901789622
:101B5000295F3F4F80E0A0E0B0E005911491F901CA
:101B6000F4902750304014C0B8016A0F7B1FFB016E
:101B70003E96459154914115510541F04C155D0536
:101B800029F4FF2011F0EB010AC0EB018F5F5096A2
:101B90008E1550F39F5F215D3F4F9B1588F2CE015C
:101BA000DF91CF911F910F91FF90EF90DF90CF9039
:101BB000BF9008959C010B96FC01A591B491235F01
:101BC0003F4FF901249170E0022E02C0660F771F8B
:101BD0000A94E2F781E090E002C0880F991F2A95ED
:101BE000E2F7282F220F282B9C91822F8623209505
:101BF0002923822B8C930895CF93DF939C012E5F32
:101C00003F4FF9018491225030409FE2899FA0010B
:101C10001124435E5D4F485F5F4FFA018491485045
:101C200050408823C1F0C9010696FC01C591D491AA
:101C3000FA013796E491EE2319F0798368830EC098
:101C40006F3F710531F028F08EEF0E94D4096FEFDD
:101C500070E0688303C08DEF0E94D409DF91CF91BB
:101C60000895DC0119968D919C911A97FC0125919C
:101C70003491CD01F90109950895DF92EF92FF9219
:101C80000F931F93CF93DF93EC017A018B01DFB6A3
:101C9000F8942D853E858F8598892817390711F08E
:101CA00080E001C08FEF8F8B882381F02D853E85EA
:101CB0008F8598892817390721F0C90160E00E94B3
:101CC000610A8F8598896FEF0E94610A888581601B
:101CD000888788858B7F888788858D7F8887898599
:101CE0009A850496FC0125913491CE01B801A70193
:101CF000F9010995DFBEDF91CF911F910F91FF9000
:101D0000EF90DF900895BF92CF92DF92EF92FF9213
:101D10000F931F93CF93DF937A018B01EC01BFB632
:101D2000F8944F3F8FEF58078FEF68078FEF7807D2
:101D300021F4A1E0CA2ED12C24C0CB01BA01F3E0DA
:101D4000660F771F881F991FFA95D1F7209101021E
:101D5000309102024091030250910402620F731FFE
:101D6000841F951FA8019701E4E0220F331F441F31
:101D7000551FEA95D1F70E941C1669010894C10805
:101D8000D10898A99923C9F1ECA1FDA18081909572
:101D9000892380838FEFE8168FEFF8068FEF08070F
:101DA0008FEF180719F421E030E01DC032E0EE0C8F
:101DB000FF1C001F111F3A95D1F76091010270912D
:101DC000020280910302909104026E0D7F1D801F1C
:101DD000911FEE0CFF1C001F111FA80197010E940C
:101DE0001C16215030402C153D0538F0ECA1FDA10A
:101DF000808198A9892B80836901E8A5F9A5C08213
:101E0000EAA5FBA5D082BFBEDF91CF911F910F91B4
:101E1000FF90EF90DF90CF90BF900895DC019696F1
:101E2000ED91FC919797808187728083D0969C91E9
:101E3000D097992341F09496ED91FC9195978081EC
:101E40009095892380830895DC0157968C9157974C
:101E5000882371F09696ED91FC9197978081877B0E
:101E600080839696ED91FC9197978081806980831D
:101E70000895DC019C96ED91FC919D9760830895F7
:101E8000DC0157968C915797882371F09696ED91C7
:101E9000FC91979780818F7680839696ED91FC9147
:101EA00097978081886480830895CF93DF93EC01B6
:101EB0000E94310E8F89882311F020E90CC08D8596
:101EC0009E85892B11F020E901C020E08F8598893B
:101ED000892B09F02864EEA1FFA12083DF91CF9127
:101EE0000895DC01262F14968D919C911597892BCE
:101EF00059F01496ED91FC91159716966D917C9181
:101F00001797822F099508959096ED91FC919197DE
:101F1000CD0109950895FC0122A133A1F90109958C
:101F20000895FC014FB7F894238534858FEF9FEF18
:101F3000948783874FBFC9010895FC0183859485E9
:101F40008F5F9F4F29F4862F90E0948783870895B1
:101F500080858460808785EF0E94D4090895DC0124
:101F600019968D919C911A970296FC0125913491B6
:101F7000CD01F90109950895CF93DF93EC01888590
:101F80008E7F8887E88DF98D309721F08A8D9B8D23
:101F90006FEF0995E985FA853896259134912115D9
:101FA000310519F0CE01F9010995DF91CF9108951E
:101FB000CF93DF93EC01888581608887E985FA8576
:101FC0003A96259134912115310519F0CE01F90188
:101FD0000995E88DF98D309721F08A8D9B8D60E011
:101FE0000995DF91CF910895EF92FF920F931F9380
:101FF000CF93DF938C017B01EA010BC0D7016D9178
:102000007D01D8015C96ED91FC915D97C801099521
:102010002197209799F7DF91CF911F910F91FF9012
:10202000EF9008951F93FC01162F248D358DF90133
:102030000995812F1F910895FC01268D378DF90197
:10204000099508951F931FB7F8940E94D80F1FBFDA
:102050001F9108950F931F93CF93DF93062FEC01E9
:1020600002C00E94E310888580FFFBCF1FB7F89461
:10207000CE010E94BC0FCE01602F0E94AF0F1FBF88
:10208000DF91CF911F910F910895DC019696ED910C
:10209000FC919797662319F080818F7702C0808129
:1020A000806880830895DC019496ED91FC9195976A
:1020B000808187FD03C02FEF3FEF07C09C96ED9115
:1020C000FC919D978081282F30E0C90108951F93CE
:1020D000CF93DF93EC01162F6A3039F4E881F98150
:1020E0000190F081E02D6DE00995E881F981019082
:1020F000F081E02DCE01612F0995CE01DF91CF91C6
:102100001F9108950F931F93CF93DF93182F092FDB
:10211000EB0104C0812F902F0E9467106991662304
:10212000C9F7812F902FDF91CF911F910F910895C3
:102130000F931F9300E010E00E94A1101F910F91D8
:1021400008958F929F92AF92BF92CF92DF92EF92BB
:10215000FF920F931F93CF93DF936B017C01490193
:102160005A01E8010E9451046C197D098E099F09EA
:10217000681579058A059B0568F00115110541F080
:10218000681979098A099B09688379838A839B8303
:102190008FEF0CC00115110541F0861A970AA80AA5
:1021A000B90A88829982AA82BB8280E0DF91CF91AE
:1021B0001F910F91FF90EF90DF90CF90BF90AF9065
:1021C0009F908F9008958FB77894000000000000D2
:1021D00000000000000000008FBF0895CF93DF9340
:1021E0009C010097E9F0FC0185919491FC01A59177
:1021F000B4910296FC01C591D4912E5F3F4FF90135
:1022000024918881822349F09FB7F8948C9120957E
:1022100082238C939FBF000003C087EF0E94D409E4
:10222000DF91CF910895CF93DF939C010097E1F068
:10223000FC0185919491FC01A591B4910296FC0159
:10224000C591D4912E5F3F4FF9012491888182235B
:1022500041F09FB7F8948C91822B8C939FBF000024
:1022600003C087EF0E94D409DF91CF9108956623C0
:1022700019F00E94131108950E94EE1008952F92F4
:102280003F924F925F926F927F928F929F92AF9206
:10229000BF92CF92DF92EF92FF920F931F93DF9343
:1022A000CF93CDB7DEB727970FB6F894DEBF0FBE3A
:1022B000CDBF80916E008B7F80936E002FB72F83F0
:1022C00078948FEF8093D7041092D8048091BB0349
:1022D000482F50E0415050405E834D838DE090E0A8
:1022E000489F5001499FB00C589FB00C1124AAEC94
:1022F000B4E0AA0EBB1E66247724430156C0F50144
:102300008081882309F448C0218432844384548422
:10231000C580D680E780F084C201B101A701960193
:102320008E010F5F1F4F0E94A110882319F1D50164
:102330001196ED91FC91129713968D919C911497A3
:102340001C922091D9043091DA042150304030930E
:10235000DA042093D904C20CD31CE41CF51C0981B7
:102360001A812B813C81B701A6010995BFEFB0937B
:10237000D80412C0611471048104910449F0898168
:102380009A81AB81BC8186159705A805B90520F413
:1023900069807A808B809C80ED81FE813197FE83FD
:1023A000ED8323EF3FEFA20EB31E4D815E814F5FA1
:1023B0005F4F09F0A4CF8091D804882309F084CF1F
:1023C0001092D7048091D9049091DA041816190656
:1023D000D4F426B530E0C9016AEF70E00E94081617
:1023E00086E09FEFDC016A9FC0016B9F900D7A9F92
:1023F000900D1124820F931F88BDAA9A80916E00C0
:10240000846080936E00BF81BFBF27960FB6F8949B
:10241000DEBF0FBECDBFCF91DF911F910F91FF9017
:10242000EF90DF90CF90BF90AF909F908F907F9074
:102430006F905F904F903F902F9008951F920F9252
:102440000FB60F9211242F933F934F935F936F9387
:102450007F938F939F93AF93BF93EF93FF930E94CC
:102460003F11FF91EF91BF91AF919F918F917F911C
:102470006F915F914F913F912F910F900FBE0F90F1
:102480001F9018952F923F924F925F926F927F927A
:102490008F929F92AF92BF92CF92DF92EF92FF9274
:1024A0000F931F93DF93CF9300D000D0CDB7DEB74B
:1024B0001C012B0149015A016701780188EEC816F9
:1024C00083E0D80680E0E80680E0F80638F48091E2
:1024D000D7048823C1F18FEF8093D8046FB7F894A5
:1024E0008091BB03482F50E0AAECB4E020E030E03C
:1024F00020C0FD018C911D968823C9F48FEF808345
:10250000328221825482438281869286A386B48657
:10251000C582D682E782F0868091D9049091DA0450
:1025200001969093DA048093D9048FEF06C02F5F51
:102530003F4F24173507ECF280E06FBF8823F1F49A
:102540008FEF0E94D4093E010894611C711CC501E3
:10255000B401A701960183010E94A1108823B9F359
:10256000C80CD91CEA1CFB1C09811A812B813C81F7
:10257000C201B701A601F101099506C08091D704F7
:10258000882311F40E943F110F900F900F900F902D
:10259000CF91DF911F910F91FF90EF90DF90CF903F
:1025A000BF90AF909F908F907F906F905F904F9073
:1025B0003F902F900895ABE0B0E0E1EEF2E10C9493
:1025C0005D165C014B017A01FC0117821682838142
:1025D00081FD08C06FEF7FEF08C142E050E0E40EDC
:1025E000F51E04C03E010894611C711CF501D380E6
:1025F000F401D3FC8591D3FE81914F01882309F426
:10260000F1C0853259F4D3FC6591D3FE61914F013D
:10261000653219F0062F10E01BC085E290E02BC058
:10262000002309F4DFC08BEE90E0602F70E00E9481
:102630000215892B39F4033211F4106103C00C36F2
:1026400061F41068F401D3FC0591D3FE01914F01B0
:1026500017FFE6CF002309F4C5C084EE90E0602F99
:1026600070E00E940215892B51F044E050E0E40E26
:10267000F51E8FE390E0B5010E944F15B7CF0336EA
:1026800029F0033779F00335F1F40BC087010E5FB1
:102690001F4FF70180819181B5010E944F1578018C
:1026A000A5CF1160F701C080D18004C090E0B501D2
:1026B0000E944F15F60110FD859110FF81916F0169
:1026C0008823A1F78ACF043611F0093639F517FFB0
:1026D00008C0F701208131814281538184E090E07C
:1026E0000AC0F701808191819C01442737FD409504
:1026F000542F82E090E0E80EF91E1F7E57FF08C0BD
:1027000050954095309521953F4F4F4F5F4F106446
:10271000CA01B901A3012AE030E034C00037A9F0B2
:10272000013730F40835B1F00F3609F05BC006C050
:10273000053739F0083709F055C008C028E030E007
:102740000CC01F7E2AE030E008C01061146220E156
:1027500030E003C0146020E132E017FF08C0F70149
:10276000608171818281938144E050E008C0F7016B
:1027700080819181BC0180E090E042E050E0E40E75
:10278000F51EA3010E947B15D82ED618012F10E04C
:1027900006FF05C08DE290E0B5010E944F1504FFD1
:1027A00015C0FE01ED0DF11D8081803379F080E3CD
:1027B00090E0B5010E944F1502FF08C00072107032
:1027C000C801885A9F4FB5010E944F15DA94F30152
:1027D000ED0DF11D808190E0B5010E944F15DD20C7
:1027E000A9F704CFF50166817781CB012B96EEE046
:1027F0000C947916CF93DF93BC018230910510F4CD
:1028000062E070E0A091E504B091E604ED01E0E043
:10281000F0E040E050E021C0888199818617970759
:1028200069F48A819B81309719F09383828304C075
:102830009093E6048093E504FE0134C0681779079D
:1028400038F44115510519F08417950708F4AC01C7
:10285000FE018A819B819C01E9012097E9F64115DF
:102860005105A9F1CA01861B970B049708F4BA0118
:10287000E0E0F0E02AC08D919C91119784179507B4
:10288000F9F46417750781F412968D919C91139752
:10289000309719F09383828304C09093E604809369
:1028A000E504FD0132964FC0CA01861B970BFD015E
:1028B000E80FF91F6193719302978D939C9343C026
:1028C000FD01828193819C01D9011097A1F680912D
:1028D000E3049091E404892B41F48091BE0390912C
:1028E000BF039093E4048093E3044091C0035091AC
:1028F000C1034115510541F44DB75EB78091BC034A
:102900009091BD03481B590B2091E3043091E404DE
:1029100024173507B0F4CA01821B930B861797075B
:1029200080F0AB014E5F5F4F8417950750F0420F68
:10293000531F5093E4044093E304F90161937193AE
:1029400002C0E0E0F0E0CF01DF91CF910895CF9396
:10295000DF93009709F450C0EC0122971B821A8282
:10296000A091E504B091E604109709F140E050E031
:10297000AC17BD0708F1BB83AA83FE0121913191F9
:10298000E20FF31FAE17BF0779F48D919C91119759
:10299000280F391F2E5F3F4F3983288312968D9160
:1029A0009C9113979B838A834115510571F4D093B1
:1029B000E604C093E50420C012968D919C91139774
:1029C000AD01009711F0DC01D3CFFA01D383C283AC
:1029D00021913191E20FF31FCE17DF0769F488814F
:1029E0009981280F391F2E5F3F4FFA0131832083D1
:1029F0008A819B8193838283DF91CF910895F8949C
:102A00000C949616FC010590061621F00020D9F7CB
:102A1000C00108953197CF010895FA01CF93FF9334
:102A2000EF932230CCF02532BCF4C22F2C2F332769
:102A300044275527FF93EF930E941C16EF91FF91B7
:102A4000605D6A330CF0695D6193B901CA01605041
:102A500070408040904051F710828F919F91CF91AC
:102A60000C94D915A0E0B0E0E8E3F5E10C9467160A
:102A70000F8118859E01255F3F4FF8018381886093
:102A80008383C80169857A85A9010E94DB12F80158
:102A90002381277F23832096E4E00C9483160F93F1
:102AA0001F93CF93DF938C01EB018B8181FF1BC0C0
:102AB00082FF0DC02E813F818C819D8128173907AF
:102AC00064F4E881F9810193F983E88306C0E8851D
:102AD000F985802F0995892B31F48E819F8101968C
:102AE0009F838E8302C00FEF1FEFC801DF91CF914C
:102AF0001F910F910895FA01AA27283051F1203132
:102B000081F1E8946F936E7F6E5F7F4F8F4F9F4F81
:102B1000AF4FB1E03ED0B4E03CD0670F781F891FC3
:102B20009A1FA11D680F791F8A1F911DA11D6A0F91
:102B3000711D811D911DA11D20D009F468943F9144
:102B40002AE0269F11243019305D3193DEF6CF0143
:102B50000895462F4770405D4193B3E00FD0C9F709
:102B6000F6CF462F4F70405D4A3318F0495D31FD76
:102B70004052419302D0A9F7EACFB4E0A6959795C9
:102B8000879577956795BA95C9F70097610571059F
:102B900008959B01AC010A2E0694579547953795E9
:102BA0002795BA95C9F7620F731F841F951FA01D43
:102BB0000895DC01FC01672F71917723E1F73297CB
:102BC00004C07C916D9370836291AE17BF07C8F308
:102BD0000895629FD001739FF001829FE00DF11D67
:102BE000649FE00DF11D929FF00D839FF00D749F87
:102BF000F00D659FF00D9927729FB00DE11DF91F33
:102C0000639FB00DE11DF91FBD01CF01112408958F
:102C1000AA1BBB1B51E107C0AA1FBB1FA617B70702
:102C200010F0A61BB70B881F991F5A95A9F780951E
:102C30009095BC01CD010895A1E21A2EAA1BBB1BE1
:102C4000FD010DC0AA1FBB1FEE1FFF1FA217B30778
:102C5000E407F50720F0A21BB30BE40BF50B661F8E
:102C6000771F881F991F1A9469F760957095809552
:102C700090959B01AC01BD01CF01089597FB092EF2
:102C800005260ED057FD04D0D7DF0AD0001C38F43B
:102C900050954095309521953F4F4F4F5F4F089588
:102CA000F6F790958095709561957F4F8F4F9F4F68
:102CB00008952F923F924F925F926F927F928F92E0
:102CC0009F92AF92BF92CF92DF92EF92FF920F93BB
:102CD0001F93CF93DF93CDB7DEB7CA1BDB0B0FB6C5
:102CE000F894DEBF0FBECDBF09942A883988488882
:102CF0005F846E847D848C849B84AA84B984C88418
:102D0000DF80EE80FD800C811B81AA81B981CE0F0E
:102D1000D11D0FB6F894DEBF0FBECDBFED010895F3
:102D2000EE0FFF1F0590F491E02D0994F894FFCF6A
:102D3000060024F400803E100000000000000000A7
:102D400000005704FFFFAF03B2036B0570050000DE
:102D500000000000002A1022109D0F910FC800C92A
:102D600000CC00CD00CE0000000210B503A603A3E6
:102D7000039D03B803BB03A903AC03000000770362
:102D80000100000000000000280020A1070080844E
:102D90001E0000D8040000800000009403DC05F44D
:102DA00001000000000000000000000000800000A2
:102DB000009703DC05F401000000000000000000A3
:102DC000000000800000009A03DC05F40100000010
:102DD00000000000000000000080000000BE03DCD6
:102DE00005F4010000000000000000000000008069
:102DF000000000C103DC05F4010000000000000039
:102E0000000000000080000000C403DC05F40100A5
:102E10000000000000000000007903060000000030
:102E20000000000000000080000000CD03DC05F47D
:102E30000100000000000000000000000080000011
:102E400000D003DC05F401000000000000000000D9
:102E500000000080000000D303DC05F40100000046
:102E600000000000000000000080000000DF03DC24
:102E700005F40100000000000000000000000080D8
:102E8000000000E203DC05F4010000000000000087
:102E9000000000000080000000E503DC05F40100F4
:102EA0000000000000000000008503060000000094
:102EB000000000000000000000A10600000000B2B9
:102EC0000600000000B806A00500000000B205B230
:102ED0000500000000D306BF0600000000D306CDA9
:102EE00006000000009A059D053A0B012000ED0444
:022EF0000000E0
:00000001FF
